{
  "address": "0xdb6D3b4CEB2aD839bdBD9A55833bac56212F1c94",
  "abi": [
    {
      "inputs": [
        {
          "internalType": "address",
          "name": "_multiSignature",
          "type": "address"
        }
      ],
      "stateMutability": "nonpayable",
      "type": "constructor"
    },
    {
      "inputs": [
        {
          "internalType": "address",
          "name": "asset",
          "type": "address"
        }
      ],
      "name": "getAssetsAggregator",
      "outputs": [
        {
          "internalType": "address",
          "name": "",
          "type": "address"
        },
        {
          "internalType": "uint256",
          "name": "",
          "type": "uint256"
        }
      ],
      "stateMutability": "view",
      "type": "function"
    },
    {
      "inputs": [],
      "name": "getMultiSignatureAddress",
      "outputs": [
        {
          "internalType": "address",
          "name": "",
          "type": "address"
        }
      ],
      "stateMutability": "view",
      "type": "function"
    },
    {
      "inputs": [
        {
          "internalType": "address",
          "name": "asset",
          "type": "address"
        }
      ],
      "name": "getPrice",
      "outputs": [
        {
          "internalType": "uint256",
          "name": "",
          "type": "uint256"
        }
      ],
      "stateMutability": "view",
      "type": "function"
    },
    {
      "inputs": [
        {
          "internalType": "uint256[]",
          "name": "assets",
          "type": "uint256[]"
        }
      ],
      "name": "getPrices",
      "outputs": [
        {
          "internalType": "uint256[]",
          "name": "",
          "type": "uint256[]"
        }
      ],
      "stateMutability": "view",
      "type": "function"
    },
    {
      "inputs": [
        {
          "internalType": "uint256",
          "name": "underlying",
          "type": "uint256"
        }
      ],
      "name": "getUnderlyingAggregator",
      "outputs": [
        {
          "internalType": "address",
          "name": "",
          "type": "address"
        },
        {
          "internalType": "uint256",
          "name": "",
          "type": "uint256"
        }
      ],
      "stateMutability": "view",
      "type": "function"
    },
    {
      "inputs": [
        {
          "internalType": "uint256",
          "name": "underlying",
          "type": "uint256"
        }
      ],
      "name": "getUnderlyingPrice",
      "outputs": [
        {
          "internalType": "uint256",
          "name": "",
          "type": "uint256"
        }
      ],
      "stateMutability": "view",
      "type": "function"
    },
    {
      "inputs": [],
      "name": "multiSignaturePosition",
      "outputs": [
        {
          "internalType": "uint256",
          "name": "",
          "type": "uint256"
        }
      ],
      "stateMutability": "view",
      "type": "function"
    },
    {
      "inputs": [
        {
          "internalType": "address",
          "name": "asset",
          "type": "address"
        },
        {
          "internalType": "address",
          "name": "aggregator",
          "type": "address"
        },
        {
          "internalType": "uint256",
          "name": "_decimals",
          "type": "uint256"
        }
      ],
      "name": "setAssetAggregator",
      "outputs": [],
      "stateMutability": "nonpayable",
      "type": "function"
    },
    {
      "inputs": [
        {
          "internalType": "uint256",
          "name": "newDecimals",
          "type": "uint256"
        }
      ],
      "name": "setDecimals",
      "outputs": [],
      "stateMutability": "nonpayable",
      "type": "function"
    },
    {
      "inputs": [
        {
          "internalType": "address",
          "name": "asset",
          "type": "address"
        },
        {
          "internalType": "uint256",
          "name": "price",
          "type": "uint256"
        }
      ],
      "name": "setPrice",
      "outputs": [],
      "stateMutability": "nonpayable",
      "type": "function"
    },
    {
      "inputs": [
        {
          "internalType": "uint256[]",
          "name": "assets",
          "type": "uint256[]"
        },
        {
          "internalType": "uint256[]",
          "name": "prices",
          "type": "uint256[]"
        }
      ],
      "name": "setPrices",
      "outputs": [],
      "stateMutability": "nonpayable",
      "type": "function"
    },
    {
      "inputs": [
        {
          "internalType": "uint256",
          "name": "underlying",
          "type": "uint256"
        },
        {
          "internalType": "address",
          "name": "aggregator",
          "type": "address"
        },
        {
          "internalType": "uint256",
          "name": "_decimals",
          "type": "uint256"
        }
      ],
      "name": "setUnderlyingAggregator",
      "outputs": [],
      "stateMutability": "nonpayable",
      "type": "function"
    },
    {
      "inputs": [
        {
          "internalType": "uint256",
          "name": "underlying",
          "type": "uint256"
        },
        {
          "internalType": "uint256",
          "name": "price",
          "type": "uint256"
        }
      ],
      "name": "setUnderlyingPrice",
      "outputs": [],
      "stateMutability": "nonpayable",
      "type": "function"
    }
  ],
  "transactionHash": "0x5651ce4d6df877910bcbeb67d82a07db65d58b62447bfebaab1ef6cc6c0012ad",
  "args": [
    "0xc4F817a1541ae1c98c72e016c58c9121e8AB3A24"
  ],
  "numDeployments": 1,
  "solcInputHash": "998545aae044c945567d8a2b7326d3e0",
  "bytecode": "0x6080346101ff57601f610c1a38819003918201601f191683019291906001600160401b038411838510176102045781602092849260409687528339810103126101ff57516001600160a01b038116908190036101ff578015610189577f8dddb57468cf5338ee155397ad1400a7a564308824f517d20a8a7c516523bb4755600160035560128160008080528060205281812060018060a01b031990732514895c72f50d8bd4b4f9b1110f0d6bd2c975268282541617905573f2bdb4ba16b7862a1bf0be03cd5ee25147d7f09680835283832073e4ee17114774713d2de0ec0f035d4f7665fc025d8382541617905573f592aa48875a5fde73ba64b527477849c73787ad90818452848420735741306c21795fdcbb9b265ea0255f499dfe515c8482541617905573dc6df65b2fa0322394a8af628ad25be7d7f413c292838552739331b55d9830ef609a2abcfac0fbce050a52fdea8686209182541617905583805260016020528585852055835284848420558252838383205581522055516109ff908161021b8239f35b815162461bcd60e51b815260206004820152604360248201527f6d756c74695369676e6174757265436c69656e74203a204d756c7469706c652060448201527f7369676e617475726520636f6e74726163742061646472657373206973207a65606482015262726f2160e81b608482015260a490fd5b600080fd5b634e487b7160e01b600052604160045260246000fdfe6040608081526004908136101561001557600080fd5b6000803560e01c8062e4768b1461052a57806309cb3a4e1461044457806341976e0914610415578063434b33ac146103ae578063638c7e171461036657806375e443aa1461032457806383532667146102ed5780638c8885c8146102cb57806397c2f255146102655780639d71488e14610226578063b889a989146101c7578063d05eaae0146100d65763da663257146100ae57600080fd5b346100d35760203660031901126100d357506100cc6020923561080f565b9051908152f35b80fd5b509190346101c357806003193601126101c35767ffffffffffffffff9082358281116101bf5761010990369085016105e7565b916024359081116101bf5761012190369085016105e7565b9261012a610645565b82518451036101735750815192845b848110610144578580f35b8061015261016e92846107a0565b5161015d82876107a0565b51885260026020528488205561077b565b610139565b6020608492519162461bcd60e51b8352820152602160248201527f696e70757420617272617973206c656e67746820617265206e6f7420657175616044820152601b60fa1b6064820152fd5b8480fd5b8280fd5b50346100d35760203660031901126100d357610222826001600160a01b03806101ee610566565b168452836020528184205416926001602052205492519283928360209093929193604081019460018060a01b031681520152565b0390f35b509034610261578160031936011261026157602090517f8dddb57468cf5338ee155397ad1400a7a564308824f517d20a8a7c516523bb478152f35b5080fd5b50903461026157606036600319011261026157610280610566565b610288610581565b90610291610645565b60018060a01b0380911684528360205282842091166bffffffffffffffffffffffff60a01b82541617905560016020526044359082205580f35b508234610261576020366003190112610261576102e6610645565b3560035580f35b5091346101c357816003193601126101c35735610308610645565b61031381151561097d565b825260026020526024359082205580f35b5082346102615760203660031901126102615735815260208181528282205460018252918390205492516001600160a01b039092168252810191909152604090f35b5090346102615781600319360112610261577f8dddb57468cf5338ee155397ad1400a7a564308824f517d20a8a7c516523bb475490516001600160a01b039091168152602090f35b5091346101c35760603660031901126101c357356103ca610581565b906103d3610645565b6103de81151561097d565b8352826020528183209060018060a01b03166bffffffffffffffffffffffff60a01b82541617905560016020526044359082205580f35b509034610261576020366003190112610261576020906100cc6001600160a01b0361043e610566565b1661080f565b508290346100d3576020918260031936011261026157803567ffffffffffffffff81116101c35784929161047a913691016105e7565b908151610486816105cf565b9061049385519283610597565b80825261049f816105cf565b8287019490601f1901368637835b8281106104f25750505083519485948186019282875251809352850193925b8281106104db57505050500390f35b8351855286955093810193928101926001016104cc565b8061050f61050961051f93859b9897999a9b6107a0565b5161080f565b61051982896107a0565b5261077b565b9695949293966104ad565b509034610261578060031936011261026157610544610566565b61054c610645565b6001600160a01b0316825260026020528120602435905580f35b600435906001600160a01b038216820361057c57565b600080fd5b602435906001600160a01b038216820361057c57565b90601f8019910116810190811067ffffffffffffffff8211176105b957604052565b634e487b7160e01b600052604160045260246000fd5b67ffffffffffffffff81116105b95760051b60200190565b81601f8201121561057c578035916105fe836105cf565b9261060c6040519485610597565b808452602092838086019260051b82010192831161057c578301905b828210610636575050505090565b81358152908301908301610628565b604051602090818101903360601b82523060601b603482015260288152606081019181831067ffffffffffffffff8411176105b957826044818693816040528551902060018060a01b037f8dddb57468cf5338ee155397ad1400a7a564308824f517d20a8a7c516523bb47541690630f5d50b360e11b83526064870152600060848701525afa90811561076f578390600092610743575b50509050156106e85750565b6084906040519062461bcd60e51b82526004820152602e60248201527f6d756c74695369676e6174757265436c69656e74203a2054686973207478206960448201526d1cc81b9bdd08185c1c9c9bdd995960921b6064820152fd5b813d8311610768575b6107568186610597565b810103126100d35750518082386106dc565b503d61074c565b6040513d6000823e3d90fd5b600019811461078a5760010190565b634e487b7160e01b600052601160045260246000fd5b80518210156107b45760209160051b010190565b634e487b7160e01b600052603260045260246000fd5b519069ffffffffffffffffffff8216820361057c57565b81156107eb570490565b634e487b7160e01b600052601260045260246000fd5b604d811161078a57600a0a90565b6000818152602081905260408120546001600160a01b031691821561096e5760a060049360405194858092633fabe5a360e21b82525afa928315610963578293610915575b508152600160205260408120549160128310156108c957600354610877916107e1565b91601203601281116108b55761088c90610801565b918281029281840414901517156108a1575090565b634e487b7160e01b81526011600452602490fd5b634e487b7160e01b82526011600452602482fd5b601283929311600014610906576003546108e2916107e1565b9160111982019182116108a15750906108fd61090392610801565b906107e1565b90565b600354610903935091506107e1565b90925060a0813d821161095b575b8161093060a09383610597565b8101031261026157610941816107ca565b506109536080602083015192016107ca565b509138610854565b3d9150610923565b6040513d84823e3d90fd5b50604091506002602052205490565b1561098457565b60405162461bcd60e51b815260206004820152601960248201527f756e6465726c79696e672063616e6e6f74206265207a65726f000000000000006044820152606490fdfea2646970667358221220fa418f63a7f3c05e035cdd54b7d46138ba8dff002fa6c7366da73b7d820b1d2964736f6c63430008140033",
  "devdoc": {
    "details": "Chainlink",
    "kind": "dev",
    "methods": {
      "getAssetsAggregator(address)": {
        "details": "Chainlink",
        "params": {
          "asset": ""
        },
        "returns": {
          "_0": "address ",
          "_1": "uint256 "
        }
      },
      "getPrice(address)": {
        "details": "uint256",
        "params": {
          "asset": ""
        },
        "returns": {
          "_0": "uint256 18"
        }
      },
      "getPrices(uint256[])": {
        "details": "",
        "params": {
          "assets": "ID"
        },
        "returns": {
          "_0": "uint256[] 18"
        }
      },
      "getUnderlyingAggregator(uint256)": {
        "details": "Chainlink",
        "params": {
          "underlying": ""
        },
        "returns": {
          "_0": "address ",
          "_1": "uint256 "
        }
      },
      "getUnderlyingPrice(uint256)": {
        "details": "",
        "params": {
          "underlying": "uint256ID"
        },
        "returns": {
          "_0": "uint256 18"
        }
      },
      "setAssetAggregator(address,address,uint256)": {
        "details": "Chainlink",
        "params": {
          "_decimals": "",
          "aggregator": "Chainlink",
          "asset": ""
        }
      },
      "setDecimals(uint256)": {
        "details": "Chainlink",
        "params": {
          "newDecimals": "  ===  === - Chainlink81e8 - "
        }
      },
      "setPrice(address,uint256)": {
        "details": "",
        "params": {
          "asset": "",
          "price": "18"
        }
      },
      "setPrices(uint256[],uint256[])": {
        "details": "",
        "params": {
          "assets": "ID",
          "prices": "18"
        }
      },
      "setUnderlyingAggregator(uint256,address,uint256)": {
        "details": "Chainlink",
        "params": {
          "_decimals": "",
          "aggregator": "Chainlink",
          "underlying": ""
        }
      },
      "setUnderlyingPrice(uint256,uint256)": {
        "details": "",
        "params": {
          "price": "18",
          "underlying": ""
        }
      }
    },
    "stateVariables": {
      "assetsMap": {
        "details": "Chainlink key: uint256ID value: Chainlink"
      },
      "decimals": {
        "details": "Chainlink 1setDecimals"
      },
      "decimalsMap": {
        "details": " key:  value: USDC=6, WETH=18"
      },
      "pricesMap": {
        "details": " key:  value: 18"
      }
    },
    "title": "BscPledgeOracle - BSC",
    "version": 1
  },
  "userdoc": {
    "kind": "user",
    "methods": {
      "getAssetsAggregator(address)": {
        "notice": ""
      },
      "getPrice(address)": {
        "notice": ""
      },
      "getPrices(uint256[])": {
        "notice": ""
      },
      "getUnderlyingAggregator(uint256)": {
        "notice": "ID"
      },
      "getUnderlyingPrice(uint256)": {
        "notice": ""
      },
      "setAssetAggregator(address,address,uint256)": {
        "notice": "Chainlink"
      },
      "setDecimals(uint256)": {
        "notice": ""
      },
      "setPrice(address,uint256)": {
        "notice": ""
      },
      "setPrices(uint256[],uint256[])": {
        "notice": ""
      },
      "setUnderlyingAggregator(uint256,address,uint256)": {
        "notice": "ChainlinkID"
      },
      "setUnderlyingPrice(uint256,uint256)": {
        "notice": "ID"
      }
    },
    "notice": "Pledge  ===  === 1. ****Chainlink +  2. ****18 3. **** 4. ****/  ===  === 1. Chainlink   2.    3.   0  ===  === - Chainlink8BTC/USD $50000.12345678 - 18 - ",
    "version": 1
  },
  "storageLayout": {
    "storage": [
      {
        "astId": 7358,
        "contract": "contracts/pledage/BscPledgeOracle.sol:BscPledgeOracle",
        "label": "assetsMap",
        "offset": 0,
        "slot": "0",
        "type": "t_mapping(t_uint256,t_contract(AggregatorV3Interface)45)"
      },
      {
        "astId": 7363,
        "contract": "contracts/pledage/BscPledgeOracle.sol:BscPledgeOracle",
        "label": "decimalsMap",
        "offset": 0,
        "slot": "1",
        "type": "t_mapping(t_uint256,t_uint256)"
      },
      {
        "astId": 7368,
        "contract": "contracts/pledage/BscPledgeOracle.sol:BscPledgeOracle",
        "label": "pricesMap",
        "offset": 0,
        "slot": "2",
        "type": "t_mapping(t_uint256,t_uint256)"
      },
      {
        "astId": 7372,
        "contract": "contracts/pledage/BscPledgeOracle.sol:BscPledgeOracle",
        "label": "decimals",
        "offset": 0,
        "slot": "3",
        "type": "t_uint256"
      }
    ],
    "types": {
      "t_contract(AggregatorV3Interface)45": {
        "encoding": "inplace",
        "label": "contract AggregatorV3Interface",
        "numberOfBytes": "20"
      },
      "t_mapping(t_uint256,t_contract(AggregatorV3Interface)45)": {
        "encoding": "mapping",
        "key": "t_uint256",
        "label": "mapping(uint256 => contract AggregatorV3Interface)",
        "numberOfBytes": "32",
        "value": "t_contract(AggregatorV3Interface)45"
      },
      "t_mapping(t_uint256,t_uint256)": {
        "encoding": "mapping",
        "key": "t_uint256",
        "label": "mapping(uint256 => uint256)",
        "numberOfBytes": "32",
        "value": "t_uint256"
      },
      "t_uint256": {
        "encoding": "inplace",
        "label": "uint256",
        "numberOfBytes": "32"
      }
    }
  }
}