{
  "address": "0x915d1556d253D139a0948b947cb653699Ab22A4a",
  "abi": [
    {
      "inputs": [
        {
          "internalType": "string",
          "name": "_name",
          "type": "string"
        },
        {
          "internalType": "string",
          "name": "_symbol",
          "type": "string"
        },
        {
          "internalType": "address",
          "name": "multiSignature",
          "type": "address"
        }
      ],
      "stateMutability": "nonpayable",
      "type": "constructor"
    },
    {
      "inputs": [
        {
          "internalType": "address",
          "name": "spender",
          "type": "address"
        },
        {
          "internalType": "uint256",
          "name": "allowance",
          "type": "uint256"
        },
        {
          "internalType": "uint256",
          "name": "needed",
          "type": "uint256"
        }
      ],
      "name": "ERC20InsufficientAllowance",
      "type": "error"
    },
    {
      "inputs": [
        {
          "internalType": "address",
          "name": "sender",
          "type": "address"
        },
        {
          "internalType": "uint256",
          "name": "balance",
          "type": "uint256"
        },
        {
          "internalType": "uint256",
          "name": "needed",
          "type": "uint256"
        }
      ],
      "name": "ERC20InsufficientBalance",
      "type": "error"
    },
    {
      "inputs": [
        {
          "internalType": "address",
          "name": "approver",
          "type": "address"
        }
      ],
      "name": "ERC20InvalidApprover",
      "type": "error"
    },
    {
      "inputs": [
        {
          "internalType": "address",
          "name": "receiver",
          "type": "address"
        }
      ],
      "name": "ERC20InvalidReceiver",
      "type": "error"
    },
    {
      "inputs": [
        {
          "internalType": "address",
          "name": "sender",
          "type": "address"
        }
      ],
      "name": "ERC20InvalidSender",
      "type": "error"
    },
    {
      "inputs": [
        {
          "internalType": "address",
          "name": "spender",
          "type": "address"
        }
      ],
      "name": "ERC20InvalidSpender",
      "type": "error"
    },
    {
      "anonymous": false,
      "inputs": [
        {
          "indexed": true,
          "internalType": "address",
          "name": "owner",
          "type": "address"
        },
        {
          "indexed": true,
          "internalType": "address",
          "name": "spender",
          "type": "address"
        },
        {
          "indexed": false,
          "internalType": "uint256",
          "name": "value",
          "type": "uint256"
        }
      ],
      "name": "Approval",
      "type": "event"
    },
    {
      "anonymous": false,
      "inputs": [
        {
          "indexed": true,
          "internalType": "address",
          "name": "from",
          "type": "address"
        },
        {
          "indexed": true,
          "internalType": "address",
          "name": "to",
          "type": "address"
        },
        {
          "indexed": false,
          "internalType": "uint256",
          "name": "value",
          "type": "uint256"
        }
      ],
      "name": "Transfer",
      "type": "event"
    },
    {
      "inputs": [
        {
          "internalType": "address",
          "name": "_addMinter",
          "type": "address"
        }
      ],
      "name": "addMinter",
      "outputs": [
        {
          "internalType": "bool",
          "name": "",
          "type": "bool"
        }
      ],
      "stateMutability": "nonpayable",
      "type": "function"
    },
    {
      "inputs": [
        {
          "internalType": "address",
          "name": "owner",
          "type": "address"
        },
        {
          "internalType": "address",
          "name": "spender",
          "type": "address"
        }
      ],
      "name": "allowance",
      "outputs": [
        {
          "internalType": "uint256",
          "name": "",
          "type": "uint256"
        }
      ],
      "stateMutability": "view",
      "type": "function"
    },
    {
      "inputs": [
        {
          "internalType": "address",
          "name": "spender",
          "type": "address"
        },
        {
          "internalType": "uint256",
          "name": "value",
          "type": "uint256"
        }
      ],
      "name": "approve",
      "outputs": [
        {
          "internalType": "bool",
          "name": "",
          "type": "bool"
        }
      ],
      "stateMutability": "nonpayable",
      "type": "function"
    },
    {
      "inputs": [
        {
          "internalType": "address",
          "name": "account",
          "type": "address"
        }
      ],
      "name": "balanceOf",
      "outputs": [
        {
          "internalType": "uint256",
          "name": "",
          "type": "uint256"
        }
      ],
      "stateMutability": "view",
      "type": "function"
    },
    {
      "inputs": [
        {
          "internalType": "address",
          "name": "_from",
          "type": "address"
        },
        {
          "internalType": "uint256",
          "name": "_amount",
          "type": "uint256"
        }
      ],
      "name": "burn",
      "outputs": [
        {
          "internalType": "bool",
          "name": "",
          "type": "bool"
        }
      ],
      "stateMutability": "nonpayable",
      "type": "function"
    },
    {
      "inputs": [],
      "name": "decimals",
      "outputs": [
        {
          "internalType": "uint8",
          "name": "",
          "type": "uint8"
        }
      ],
      "stateMutability": "view",
      "type": "function"
    },
    {
      "inputs": [
        {
          "internalType": "address",
          "name": "_delMinter",
          "type": "address"
        }
      ],
      "name": "delMinter",
      "outputs": [
        {
          "internalType": "bool",
          "name": "",
          "type": "bool"
        }
      ],
      "stateMutability": "nonpayable",
      "type": "function"
    },
    {
      "inputs": [
        {
          "internalType": "uint256",
          "name": "_index",
          "type": "uint256"
        }
      ],
      "name": "getMinter",
      "outputs": [
        {
          "internalType": "address",
          "name": "",
          "type": "address"
        }
      ],
      "stateMutability": "view",
      "type": "function"
    },
    {
      "inputs": [],
      "name": "getMinterLength",
      "outputs": [
        {
          "internalType": "uint256",
          "name": "",
          "type": "uint256"
        }
      ],
      "stateMutability": "view",
      "type": "function"
    },
    {
      "inputs": [],
      "name": "getMultiSignatureAddress",
      "outputs": [
        {
          "internalType": "address",
          "name": "",
          "type": "address"
        }
      ],
      "stateMutability": "view",
      "type": "function"
    },
    {
      "inputs": [
        {
          "internalType": "address",
          "name": "account",
          "type": "address"
        }
      ],
      "name": "isMinter",
      "outputs": [
        {
          "internalType": "bool",
          "name": "",
          "type": "bool"
        }
      ],
      "stateMutability": "view",
      "type": "function"
    },
    {
      "inputs": [
        {
          "internalType": "address",
          "name": "_to",
          "type": "address"
        },
        {
          "internalType": "uint256",
          "name": "_amount",
          "type": "uint256"
        }
      ],
      "name": "mint",
      "outputs": [
        {
          "internalType": "bool",
          "name": "",
          "type": "bool"
        }
      ],
      "stateMutability": "nonpayable",
      "type": "function"
    },
    {
      "inputs": [],
      "name": "multiSignaturePosition",
      "outputs": [
        {
          "internalType": "uint256",
          "name": "",
          "type": "uint256"
        }
      ],
      "stateMutability": "view",
      "type": "function"
    },
    {
      "inputs": [],
      "name": "name",
      "outputs": [
        {
          "internalType": "string",
          "name": "",
          "type": "string"
        }
      ],
      "stateMutability": "view",
      "type": "function"
    },
    {
      "inputs": [],
      "name": "symbol",
      "outputs": [
        {
          "internalType": "string",
          "name": "",
          "type": "string"
        }
      ],
      "stateMutability": "view",
      "type": "function"
    },
    {
      "inputs": [],
      "name": "totalSupply",
      "outputs": [
        {
          "internalType": "uint256",
          "name": "",
          "type": "uint256"
        }
      ],
      "stateMutability": "view",
      "type": "function"
    },
    {
      "inputs": [
        {
          "internalType": "address",
          "name": "to",
          "type": "address"
        },
        {
          "internalType": "uint256",
          "name": "value",
          "type": "uint256"
        }
      ],
      "name": "transfer",
      "outputs": [
        {
          "internalType": "bool",
          "name": "",
          "type": "bool"
        }
      ],
      "stateMutability": "nonpayable",
      "type": "function"
    },
    {
      "inputs": [
        {
          "internalType": "address",
          "name": "from",
          "type": "address"
        },
        {
          "internalType": "address",
          "name": "to",
          "type": "address"
        },
        {
          "internalType": "uint256",
          "name": "value",
          "type": "uint256"
        }
      ],
      "name": "transferFrom",
      "outputs": [
        {
          "internalType": "bool",
          "name": "",
          "type": "bool"
        }
      ],
      "stateMutability": "nonpayable",
      "type": "function"
    }
  ],
  "transactionHash": "0x6cbaca2967593a065f68bd04910cfd64c41971d8ac3193638ee24f5b76b42726",
  "args": [
    "jpBTC_1",
    "jpBTC_1",
    "0xc4F817a1541ae1c98c72e016c58c9121e8AB3A24"
  ],
  "numDeployments": 1,
  "solcInputHash": "3953f88cf47e017e2801ec25da3291c0",
  "bytecode": "0x608060405234620003d3576200137f803803806200001d81620003d8565b928339810190606081830312620003d35780516001600160401b039290838111620003d3578162000050918401620003fe565b60209182840151858111620003d3576040916200006f918601620003fe565b9301516001600160a01b0381169490859003620003d3578151818111620002d3576003908154906001948583811c93168015620003c8575b87841014620003b2578190601f938481116200035c575b508790848311600114620002f557600092620002e9575b505060001982851b1c191690851b1782555b8551928311620002d35760049586548581811c91168015620002c8575b87821014620002b35782811162000268575b5085918411600114620001fd57938394918492600095620001f1575b50501b92600019911b1c19161782555b82156200017c57827f8dddb57468cf5338ee155397ad1400a7a564308824f517d20a8a7c516523bb4755604051610f0e9081620004718239f35b60405162461bcd60e51b815291820152604360248201527f6d756c74695369676e6174757265436c69656e74203a204d756c7469706c652060448201527f7369676e617475726520636f6e74726163742061646472657373206973207a65606482015262726f2160e81b608482015260a49150fd5b01519350388062000132565b9190601f198416928760005284876000209460005b898983831062000250575050501062000235575b50505050811b01825562000142565b01519060f884600019921b161c191690553880808062000226565b86860151895590970196948501948893500162000212565b87600052866000208380870160051c820192898810620002a9575b0160051c019086905b8281106200029c57505062000116565b600081550186906200028c565b9250819262000283565b602288634e487b7160e01b6000525260246000fd5b90607f169062000104565b634e487b7160e01b600052604160045260246000fd5b015190503880620000d5565b90879350601f1983169186600052896000209260005b8b8282106200034557505084116200032c575b505050811b018255620000e7565b015160001983871b60f8161c191690553880806200031e565b8385015186558b979095019493840193016200030b565b90915084600052876000208480850160051c8201928a8610620003a8575b918991869594930160051c01915b82811062000398575050620000be565b6000815585945089910162000388565b925081926200037a565b634e487b7160e01b600052602260045260246000fd5b92607f1692620000a7565b600080fd5b6040519190601f01601f191682016001600160401b03811183821017620002d357604052565b919080601f84011215620003d35782516001600160401b038111620002d35760209062000434601f8201601f19168301620003d8565b92818452828287010111620003d35760005b8181106200045c57508260009394955001015290565b85810183015184820184015282016200044656fe608060408181526004918236101561001657600080fd5b600092833560e01c9182630323aac7146109f15750816306fdde03146108fc578163095ea7b31461085257816318160ddd1461083357816323338b88146107a357816323b872dd146106af578163313ce5671461069357816340c10f19146105cc5781635b7121f8146104f2578163638c7e17146104aa57816370a082311461047357816395d89b4114610370578163983b2d56146102e05781639d71488e146102a55781639dc29fac146101ab57508063a9059cbb1461017b578063aa271e1a146101365763dd62ed3e146100eb57600080fd5b3461013257806003193601126101325780602092610107610a56565b61010f610a71565b6001600160a01b0391821683526001865283832091168252845220549051908152f35b5080fd5b5034610132576020366003190112610132576020906101726001600160a01b0361015e610a56565b166000526006602052604060002054151590565b90519015158152f35b50346101325780600319360112610132576020906101a461019a610a56565b6024359033610abf565b5160018152f35b8284346102a257816003193601126102a2576101c5610a56565b92602435906101e96101e4336000526006602052604060002054151590565b610e8c565b6001600160a01b03851694851561028b5785845283602052848420549183831061025757505060208286937fddf252ad1be2c89b69c2b068fc378daa952ba7f163c4a11628f55a4df523b3ef9383988752868452038686205580600254036002558551908152a35160018152f35b855163391434e360e21b81526001600160a01b03909216908201908152602081018390526040810184905281906060010390fd5b8451634b637e8f60e11b8152808301859052602490fd5b80fd5b505034610132578160031936011261013257602090517f8dddb57468cf5338ee155397ad1400a7a564308824f517d20a8a7c516523bb478152f35b905082346102a25760203660031901126102a257506102fd610a56565b610305610c6c565b6001600160a01b03169081156103215760208361017284610bea565b608490602084519162461bcd60e51b8352820152602360248201527f546f6b656e203a205f6164644d696e7465722061646472657373206973207a65604482015262726f2160e81b6064820152fd5b838334610132578160031936011261013257805191809380549160019083821c92828516948515610469575b60209586861081146104565785895290811561043257506001146103da575b6103d687876103cc828c0383610a87565b5191829182610a0d565b0390f35b81529295507f8a35acfbc15ff81a39ae7d344fd709f28e8600b4aa8c65c6b64bfe7fe36bd19b5b82841061041f57505050826103d6946103cc928201019486806103bb565b8054868501880152928601928101610401565b60ff19168887015250505050151560051b83010192506103cc826103d686806103bb565b634e487b7160e01b845260228352602484fd5b93607f169361039c565b5050346101325760203660031901126101325760209181906001600160a01b0361049b610a56565b16815280845220549051908152f35b5050346101325781600319360112610132577f8dddb57468cf5338ee155397ad1400a7a564308824f517d20a8a7c516523bb475490516001600160a01b039091168152602090f35b9050346105c85760203660031901126105c85780359060055460001981018181116105b5578310156105725782101561055f575060056020935260018060a01b03907f036b6384b5eca791c62761152d0c79bb0604c104a5fb6f4eb0703f3154bb3db00154169051908152f35b634e487b7160e01b845260329052602483fd5b835162461bcd60e51b8152602081840152601b60248201527f546f6b656e203a20696e646578206f7574206f6620626f756e647300000000006044820152606490fd5b634e487b7160e01b865260118352602486fd5b8280fd5b8284346102a257816003193601126102a2576105e6610a56565b90602435916106056101e4336000526006602052604060002054151590565b6001600160a01b031691821561067c5760025481810180911161066957602095507fddf252ad1be2c89b69c2b068fc378daa952ba7f163c4a11628f55a4df523b3ef9186916002558484528382528584208181540190558551908152a35160018152f35b634e487b7160e01b835260118652602483fd5b835163ec442f0560e01b8152808601839052602490fd5b5050346101325781600319360112610132576020905160128152f35b905082346102a25760603660031901126102a2576106cb610a56565b6106d3610a71565b916044359360018060a01b03831680835260016020528683203384526020528683205491600019831061070f575b6020886101a4898989610abf565b868310610777578115610760573315610749575082526001602090815286832033845281529186902090859003905582906101a487610701565b8751634a1406b160e11b8152908101849052602490fd5b875163e602df0560e01b8152908101849052602490fd5b8751637dc7a0d960e11b8152339181019182526020820193909352604081018790528291506060010390fd5b905082346102a25760203660031901126102a257506107c0610a56565b6107c8610c6c565b6001600160a01b03169081156107e45760208361017284610da2565b608490602084519162461bcd60e51b8352820152602360248201527f546f6b656e203a205f64656c4d696e7465722061646472657373206973207a65604482015262726f2160e81b6064820152fd5b5050346101325781600319360112610132576020906002549051908152f35b9050346105c857816003193601126105c85761086c610a56565b6024359033156108e5576001600160a01b03169182156108ce57508083602095338152600187528181208582528752205582519081527f8c5be1e5ebec7d5bd14f71427d1e84f3dd0314c0f7b2291e5b200ac8c7c3b925843392a35160018152f35b8351634a1406b160e11b8152908101859052602490fd5b835163e602df0560e01b8152808401869052602490fd5b919050346105c857826003193601126105c857805191836003549060019082821c9282811680156109e7575b60209586861082146109d457508488529081156109b25750600114610959575b6103d686866103cc828b0383610a87565b929550600383527fc2575a0e9e593c00f959f8c92f12db2869c3395a3b0502d05e2516446f71f85b5b82841061099f57505050826103d6946103cc928201019438610948565b8054868501880152928601928101610982565b60ff191687860152505050151560051b83010192506103cc826103d638610948565b634e487b7160e01b845260229052602483fd5b93607f1693610928565b8490346101325781600319360112610132576020906005548152f35b6020808252825181830181905290939260005b828110610a4257505060409293506000838284010152601f8019910116010190565b818101860151848201604001528501610a20565b600435906001600160a01b0382168203610a6c57565b600080fd5b602435906001600160a01b0382168203610a6c57565b90601f8019910116810190811067ffffffffffffffff821117610aa957604052565b634e487b7160e01b600052604160045260246000fd5b916001600160a01b03808416928315610b845716928315610b6b5760009083825281602052604082205490838210610b39575091604082827fddf252ad1be2c89b69c2b068fc378daa952ba7f163c4a11628f55a4df523b3ef958760209652828652038282205586815220818154019055604051908152a3565b60405163391434e360e21b81526001600160a01b03919091166004820152602481019190915260448101839052606490fd5b60405163ec442f0560e01b815260006004820152602490fd5b604051634b637e8f60e11b815260006004820152602490fd5b600554811015610bd45760056000527f036b6384b5eca791c62761152d0c79bb0604c104a5fb6f4eb0703f3154bb3db00190600090565b634e487b7160e01b600052603260045260246000fd5b600081815260066020526040812054610c675760055468010000000000000000811015610c53579082610c3f610c2884600160409601600555610b9d565b819391549060031b91821b91600019901b19161790565b905560055492815260066020522055600190565b634e487b7160e01b82526041600452602482fd5b905090565b604051602090818101903360601b82523060601b603482015260288152606081019181831067ffffffffffffffff841117610aa957826044818693816040528551902060018060a01b037f8dddb57468cf5338ee155397ad1400a7a564308824f517d20a8a7c516523bb47541690630f5d50b360e11b83526064870152600060848701525afa908115610d96578390600092610d6a575b5050905015610d0f5750565b6084906040519062461bcd60e51b82526004820152602e60248201527f6d756c74695369676e6174757265436c69656e74203a2054686973207478206960448201526d1cc81b9bdd08185c1c9c9bdd995960921b6064820152fd5b813d8311610d8f575b610d7d8186610a87565b810103126102a2575051808238610d03565b503d610d73565b6040513d6000823e3d90fd5b6000818152600660205260408120549091908015610e875760001990808201818111610e735760055490838201918211610e5f57818103610e2b575b5050506005548015610e1757810190610df682610b9d565b909182549160031b1b19169055600555815260066020526040812055600190565b634e487b7160e01b84526031600452602484fd5b610e49610e3a610c2893610b9d565b90549060031b1c928392610b9d565b9055845260066020526040842055388080610dde565b634e487b7160e01b86526011600452602486fd5b634e487b7160e01b85526011600452602485fd5b505090565b15610e9357565b60405162461bcd60e51b815260206004820152601e60248201527f546f6b656e3a2063616c6c6572206973206e6f742061206d696e7465722100006044820152606490fdfea264697066735822122017a9030b6e0b85650a2330b8d0e6283339d36dcaa1aeb762830110c29013b56a64736f6c63430008140033",
  "devdoc": {
    "errors": {
      "ERC20InsufficientAllowance(address,uint256,uint256)": [
        {
          "details": "Indicates a failure with the `spender`s `allowance`. Used in transfers.",
          "params": {
            "allowance": "Amount of tokens a `spender` is allowed to operate with.",
            "needed": "Minimum amount required to perform a transfer.",
            "spender": "Address that may be allowed to operate on tokens without being their owner."
          }
        }
      ],
      "ERC20InsufficientBalance(address,uint256,uint256)": [
        {
          "details": "Indicates an error related to the current `balance` of a `sender`. Used in transfers.",
          "params": {
            "balance": "Current balance for the interacting account.",
            "needed": "Minimum amount required to perform a transfer.",
            "sender": "Address whose tokens are being transferred."
          }
        }
      ],
      "ERC20InvalidApprover(address)": [
        {
          "details": "Indicates a failure with the `approver` of a token to be approved. Used in approvals.",
          "params": {
            "approver": "Address initiating an approval operation."
          }
        }
      ],
      "ERC20InvalidReceiver(address)": [
        {
          "details": "Indicates a failure with the token `receiver`. Used in transfers.",
          "params": {
            "receiver": "Address to which tokens are being transferred."
          }
        }
      ],
      "ERC20InvalidSender(address)": [
        {
          "details": "Indicates a failure with the token `sender`. Used in transfers.",
          "params": {
            "sender": "Address whose tokens are being transferred."
          }
        }
      ],
      "ERC20InvalidSpender(address)": [
        {
          "details": "Indicates a failure with the `spender` to be approved. Used in approvals.",
          "params": {
            "spender": "Address that may be allowed to operate on tokens without being their owner."
          }
        }
      ]
    },
    "events": {
      "Approval(address,address,uint256)": {
        "details": "Emitted when the allowance of a `spender` for an `owner` is set by a call to {approve}. `value` is the new allowance."
      },
      "Transfer(address,address,uint256)": {
        "details": "Emitted when `value` tokens are moved from one account (`from`) to another (`to`). Note that `value` may be zero."
      }
    },
    "kind": "dev",
    "methods": {
      "addMinter(address)": {
        "details": "EnumerableSet.add()",
        "params": {
          "_addMinter": ""
        },
        "returns": {
          "_0": "bool truefalse  === EnumerableSet.add() === 1.  2.  3.  4. "
        }
      },
      "allowance(address,address)": {
        "details": "Returns the remaining number of tokens that `spender` will be allowed to spend on behalf of `owner` through {transferFrom}. This is zero by default. This value changes when {approve} or {transferFrom} are called."
      },
      "approve(address,uint256)": {
        "details": "See {IERC20-approve}. NOTE: If `value` is the maximum `uint256`, the allowance is not updated on `transferFrom`. This is semantically equivalent to an infinite approval. Requirements: - `spender` cannot be the zero address."
      },
      "balanceOf(address)": {
        "details": "Returns the value of tokens owned by `account`."
      },
      "decimals()": {
        "details": "Returns the number of decimals used to get its user representation. For example, if `decimals` equals `2`, a balance of `505` tokens should be displayed to a user as `5.05` (`505 / 10 ** 2`). Tokens usually opt for a value of 18, imitating the relationship between Ether and Wei. This is the default value returned by this function, unless it's overridden. NOTE: This information is only used for _display_ purposes: it in no way affects any of the arithmetic of the contract, including {IERC20-balanceOf} and {IERC20-transfer}."
      },
      "delMinter(address)": {
        "details": "EnumerableSet.remove()",
        "params": {
          "_delMinter": ""
        },
        "returns": {
          "_0": "bool truefalse  === EnumerableSet.remove() === 1.  2.  3.  4.  5.  \"\""
        }
      },
      "getMinter(uint256)": {
        "details": "EnumerableSet.at()",
        "params": {
          "_index": ""
        },
        "returns": {
          "_0": "address "
        }
      },
      "getMinterLength()": {
        "details": "EnumerableSet",
        "returns": {
          "_0": "uint256 "
        }
      },
      "isMinter(address)": {
        "details": "EnumerableSet.contains()O(1)",
        "params": {
          "account": ""
        },
        "returns": {
          "_0": "bool truefalse"
        }
      },
      "name()": {
        "details": "Returns the name of the token."
      },
      "symbol()": {
        "details": "Returns the symbol of the token, usually a shorter version of the name."
      },
      "totalSupply()": {
        "details": "Returns the value of tokens in existence."
      },
      "transfer(address,uint256)": {
        "details": "See {IERC20-transfer}. Requirements: - `to` cannot be the zero address. - the caller must have a balance of at least `value`."
      },
      "transferFrom(address,address,uint256)": {
        "details": "See {IERC20-transferFrom}. Skips emitting an {Approval} event indicating an allowance update. This is not required by the ERC. See {xref-ERC20-_approve-address-address-uint256-bool-}[_approve]. NOTE: Does not update the allowance if the current allowance is the maximum `uint256`. Requirements: - `from` and `to` cannot be the zero address. - `from` must have a balance of at least `value`. - the caller must have allowance for ``from``'s tokens of at least `value`."
      }
    },
    "version": 1
  },
  "userdoc": {
    "kind": "user",
    "methods": {
      "addMinter(address)": {
        "notice": ""
      },
      "delMinter(address)": {
        "notice": ""
      },
      "getMinter(uint256)": {
        "notice": ""
      },
      "getMinterLength()": {
        "notice": ""
      },
      "isMinter(address)": {
        "notice": ""
      }
    },
    "version": 1
  },
  "storageLayout": {
    "storage": [
      {
        "astId": 295,
        "contract": "contracts/pledage/DebtToken.sol:DebtToken",
        "label": "_balances",
        "offset": 0,
        "slot": "0",
        "type": "t_mapping(t_address,t_uint256)"
      },
      {
        "astId": 301,
        "contract": "contracts/pledage/DebtToken.sol:DebtToken",
        "label": "_allowances",
        "offset": 0,
        "slot": "1",
        "type": "t_mapping(t_address,t_mapping(t_address,t_uint256))"
      },
      {
        "astId": 303,
        "contract": "contracts/pledage/DebtToken.sol:DebtToken",
        "label": "_totalSupply",
        "offset": 0,
        "slot": "2",
        "type": "t_uint256"
      },
      {
        "astId": 305,
        "contract": "contracts/pledage/DebtToken.sol:DebtToken",
        "label": "_name",
        "offset": 0,
        "slot": "3",
        "type": "t_string_storage"
      },
      {
        "astId": 307,
        "contract": "contracts/pledage/DebtToken.sol:DebtToken",
        "label": "_symbol",
        "offset": 0,
        "slot": "4",
        "type": "t_string_storage"
      },
      {
        "astId": 9225,
        "contract": "contracts/pledage/DebtToken.sol:DebtToken",
        "label": "_minters",
        "offset": 0,
        "slot": "5",
        "type": "t_struct(AddressSet)6951_storage"
      }
    ],
    "types": {
      "t_address": {
        "encoding": "inplace",
        "label": "address",
        "numberOfBytes": "20"
      },
      "t_array(t_bytes32)dyn_storage": {
        "base": "t_bytes32",
        "encoding": "dynamic_array",
        "label": "bytes32[]",
        "numberOfBytes": "32"
      },
      "t_bytes32": {
        "encoding": "inplace",
        "label": "bytes32",
        "numberOfBytes": "32"
      },
      "t_mapping(t_address,t_mapping(t_address,t_uint256))": {
        "encoding": "mapping",
        "key": "t_address",
        "label": "mapping(address => mapping(address => uint256))",
        "numberOfBytes": "32",
        "value": "t_mapping(t_address,t_uint256)"
      },
      "t_mapping(t_address,t_uint256)": {
        "encoding": "mapping",
        "key": "t_address",
        "label": "mapping(address => uint256)",
        "numberOfBytes": "32",
        "value": "t_uint256"
      },
      "t_mapping(t_bytes32,t_uint256)": {
        "encoding": "mapping",
        "key": "t_bytes32",
        "label": "mapping(bytes32 => uint256)",
        "numberOfBytes": "32",
        "value": "t_uint256"
      },
      "t_string_storage": {
        "encoding": "bytes",
        "label": "string",
        "numberOfBytes": "32"
      },
      "t_struct(AddressSet)6951_storage": {
        "encoding": "inplace",
        "label": "struct EnumerableSet.AddressSet",
        "members": [
          {
            "astId": 6950,
            "contract": "contracts/pledage/DebtToken.sol:DebtToken",
            "label": "_inner",
            "offset": 0,
            "slot": "0",
            "type": "t_struct(Set)6465_storage"
          }
        ],
        "numberOfBytes": "64"
      },
      "t_struct(Set)6465_storage": {
        "encoding": "inplace",
        "label": "struct EnumerableSet.Set",
        "members": [
          {
            "astId": 6460,
            "contract": "contracts/pledage/DebtToken.sol:DebtToken",
            "label": "_values",
            "offset": 0,
            "slot": "0",
            "type": "t_array(t_bytes32)dyn_storage"
          },
          {
            "astId": 6464,
            "contract": "contracts/pledage/DebtToken.sol:DebtToken",
            "label": "_positions",
            "offset": 0,
            "slot": "1",
            "type": "t_mapping(t_bytes32,t_uint256)"
          }
        ],
        "numberOfBytes": "64"
      },
      "t_uint256": {
        "encoding": "inplace",
        "label": "uint256",
        "numberOfBytes": "32"
      }
    }
  }
}