{
  "address": "0xc4F817a1541ae1c98c72e016c58c9121e8AB3A24",
  "abi": [
    {
      "inputs": [
        {
          "internalType": "address[]",
          "name": "owners",
          "type": "address[]"
        },
        {
          "internalType": "uint256",
          "name": "limitedSignNum",
          "type": "uint256"
        }
      ],
      "stateMutability": "nonpayable",
      "type": "constructor"
    },
    {
      "anonymous": false,
      "inputs": [
        {
          "indexed": true,
          "internalType": "address",
          "name": "from",
          "type": "address"
        },
        {
          "indexed": true,
          "internalType": "address",
          "name": "to",
          "type": "address"
        },
        {
          "indexed": true,
          "internalType": "bytes32",
          "name": "msgHash",
          "type": "bytes32"
        }
      ],
      "name": "CreateApplication",
      "type": "event"
    },
    {
      "anonymous": false,
      "inputs": [
        {
          "indexed": true,
          "internalType": "address",
          "name": "from",
          "type": "address"
        },
        {
          "indexed": true,
          "internalType": "bytes32",
          "name": "msgHash",
          "type": "bytes32"
        },
        {
          "indexed": false,
          "internalType": "uint256",
          "name": "index",
          "type": "uint256"
        }
      ],
      "name": "RevokeApplication",
      "type": "event"
    },
    {
      "anonymous": false,
      "inputs": [
        {
          "indexed": true,
          "internalType": "address",
          "name": "from",
          "type": "address"
        },
        {
          "indexed": true,
          "internalType": "bytes32",
          "name": "msgHash",
          "type": "bytes32"
        },
        {
          "indexed": false,
          "internalType": "uint256",
          "name": "index",
          "type": "uint256"
        }
      ],
      "name": "SignApplication",
      "type": "event"
    },
    {
      "anonymous": false,
      "inputs": [
        {
          "indexed": true,
          "internalType": "address",
          "name": "sender",
          "type": "address"
        },
        {
          "indexed": true,
          "internalType": "address",
          "name": "oldOwner",
          "type": "address"
        },
        {
          "indexed": true,
          "internalType": "address",
          "name": "newOwner",
          "type": "address"
        }
      ],
      "name": "TransferOwner",
      "type": "event"
    },
    {
      "inputs": [
        {
          "internalType": "address",
          "name": "to",
          "type": "address"
        }
      ],
      "name": "createApplication",
      "outputs": [
        {
          "internalType": "uint256",
          "name": "",
          "type": "uint256"
        }
      ],
      "stateMutability": "nonpayable",
      "type": "function"
    },
    {
      "inputs": [
        {
          "internalType": "bytes32",
          "name": "msghash",
          "type": "bytes32"
        }
      ],
      "name": "getApplicationCount",
      "outputs": [
        {
          "internalType": "uint256",
          "name": "",
          "type": "uint256"
        }
      ],
      "stateMutability": "view",
      "type": "function"
    },
    {
      "inputs": [
        {
          "internalType": "address",
          "name": "from",
          "type": "address"
        },
        {
          "internalType": "address",
          "name": "to",
          "type": "address"
        }
      ],
      "name": "getApplicationHash",
      "outputs": [
        {
          "internalType": "bytes32",
          "name": "",
          "type": "bytes32"
        }
      ],
      "stateMutability": "pure",
      "type": "function"
    },
    {
      "inputs": [
        {
          "internalType": "bytes32",
          "name": "msghash",
          "type": "bytes32"
        },
        {
          "internalType": "uint256",
          "name": "index",
          "type": "uint256"
        }
      ],
      "name": "getApplicationInfo",
      "outputs": [
        {
          "internalType": "address",
          "name": "",
          "type": "address"
        },
        {
          "internalType": "address[]",
          "name": "",
          "type": "address[]"
        }
      ],
      "stateMutability": "view",
      "type": "function"
    },
    {
      "inputs": [],
      "name": "getMultiSignatureAddress",
      "outputs": [
        {
          "internalType": "address",
          "name": "",
          "type": "address"
        }
      ],
      "stateMutability": "view",
      "type": "function"
    },
    {
      "inputs": [
        {
          "internalType": "bytes32",
          "name": "msghash",
          "type": "bytes32"
        },
        {
          "internalType": "uint256",
          "name": "lastIndex",
          "type": "uint256"
        }
      ],
      "name": "getValidSignature",
      "outputs": [
        {
          "internalType": "uint256",
          "name": "",
          "type": "uint256"
        }
      ],
      "stateMutability": "view",
      "type": "function"
    },
    {
      "inputs": [],
      "name": "multiSignaturePosition",
      "outputs": [
        {
          "internalType": "uint256",
          "name": "",
          "type": "uint256"
        }
      ],
      "stateMutability": "view",
      "type": "function"
    },
    {
      "inputs": [
        {
          "internalType": "bytes32",
          "name": "msghash",
          "type": "bytes32"
        }
      ],
      "name": "revokeApplication",
      "outputs": [],
      "stateMutability": "nonpayable",
      "type": "function"
    },
    {
      "inputs": [
        {
          "internalType": "bytes32",
          "name": "msghash",
          "type": "bytes32"
        }
      ],
      "name": "signApplication",
      "outputs": [],
      "stateMutability": "nonpayable",
      "type": "function"
    },
    {
      "inputs": [
        {
          "internalType": "uint256",
          "name": "",
          "type": "uint256"
        }
      ],
      "name": "signatureOwners",
      "outputs": [
        {
          "internalType": "address",
          "name": "",
          "type": "address"
        }
      ],
      "stateMutability": "view",
      "type": "function"
    },
    {
      "inputs": [],
      "name": "threshold",
      "outputs": [
        {
          "internalType": "uint256",
          "name": "",
          "type": "uint256"
        }
      ],
      "stateMutability": "view",
      "type": "function"
    },
    {
      "inputs": [
        {
          "internalType": "uint256",
          "name": "index",
          "type": "uint256"
        },
        {
          "internalType": "address",
          "name": "newOwner",
          "type": "address"
        }
      ],
      "name": "transferOwner",
      "outputs": [],
      "stateMutability": "nonpayable",
      "type": "function"
    }
  ],
  "transactionHash": "0x126d9a5f9be4591eb2f24c6d1be16e71e9997e0fd83b37402510ebceb9302917",
  "args": [
    [
      "0x523df39cae18ea125930da730628213e4b147cdc",
      "0xcafd18c0c33676a17fb3bf63bd46f8ffcbff9039",
      "0x6002bad747afd5690f543a670f3e3bd30e033084"
    ],
    2
  ],
  "numDeployments": 1,
  "solcInputHash": "3953f88cf47e017e2801ec25da3291c0",
  "bytecode": "0x608060405234620002995762000f4a803803806200001d816200029e565b9283398101604082820312620002995781516001600160401b039190828111620002995783019080601f83011215620002995781519383851162000164578460051b9160209384620000718186016200029e565b809881520190858295820101928311620002995790858094939201905b8282106200026d575050500151933015620001f657307f8dddb57468cf5338ee155397ad1400a7a564308824f517d20a8a7c516523bb4755848151106200017a57519283116200016457680100000000000000008311620001645760009081548483558085106200013c575b5091818052808220915b848110620001205785600155604051610c859081620002c58239f35b83516001600160a01b0316838201559281019260010162000104565b8280528484842091820191015b818110620001585750620000fa565b83815560010162000149565b634e487b7160e01b600052604160045260246000fd5b60405162461bcd60e51b815260048101849052604860248201527f4d756c7469706c65205369676e6174757265203a205369676e6174757265207460448201527f68726573686f6c642069732067726561746572207468616e206f776e65727327606482015267206c656e6774682160c01b608482015260a490fd5b60405162461bcd60e51b815260048101849052604360248201527f6d756c74695369676e6174757265436c69656e74203a204d756c7469706c652060448201527f7369676e617475726520636f6e74726163742061646472657373206973207a65606482015262726f2160e81b608482015260a490fd5b815193945091929091906001600160a01b0381168103620002995781528593929184019084016200008e565b600080fd5b6040519190601f01601f191682016001600160401b03811183821017620001645760405256fe6040608081526004908136101561001557600080fd5b600091823560e01c80631ebaa166146108005780631ebe85ba146105cf57806335157be11461042e57806339270196146103f957806342cde4e8146103da5780635e63ff3f14610398578063638c7e1714610350578063665bbfde146102805780637000823d146102595780639d71488e1461021e578063df18ec8f146101335763eb96cbed146100a557600080fd5b3461012f57602036600319011261012f5761012b9161012091356100d06100cb33610969565b6108db565b80855260026020526100e6828620541515610a3f565b8082518681527ffb7251ba5d43bdf2193d4616dad278fd04102e9fd2291bb9f95510a03f10f8ce60203392a3845260026020528320610a0e565b506001339101610aa3565b5080f35b8280fd5b50503461021a57610170916101473661081c565b81839592955260209460028652610162858520548310610a3f565b835260028552838320610a23565b5090825161017d816109ba565b60018060a01b0394858454168252600180940195855192838389549182815201908199875284872090875b81811061020557505050906101c085849303866109ec565b84848201525116928651968088019488528388015251809352606086019693905b8382106101ee5786880387f35b8451811688529682019693820193908501906101e1565b825486168452928601929189019189016101a8565b5080fd5b50503461021a578160031936011261021a57602090517f8dddb57468cf5338ee155397ad1400a7a564308824f517d20a8a7c516523bb478152f35b503461012f57602036600319011261012f5760209282913581526002845220549051908152f35b50903461012f57602036600319011261012f576102f760019183356102a76100cb33610969565b80865260026020526102bd828720541515610a3f565b8082518781527f2d579b8389bf07e7ce434f3bd88b036a33d28787d19af73a5aa2003a5dcb7d3660203392a3855260026020528420610a0e565b5001805491600160401b83101561033d57508161031c91600161033a940181556108ad565b81546001600160a01b0360039290921b91821b19163390911b179055565b80f35b634e487b7160e01b845260419052602483fd5b50503461021a578160031936011261021a577f8dddb57468cf5338ee155397ad1400a7a564308824f517d20a8a7c516523bb475490516001600160a01b039091168152602090f35b503461012f57602036600319011261012f57359180548310156103d757506103c1602092610863565b905491519160018060a01b039160031b1c168152f35b80fd5b50503461021a578160031936011261021a576020906001549051908152f35b50503461021a578060031936011261021a5760209061042761041961084d565b610421610837565b90610c11565b9051908152f35b5091903461021a576020928360031936011261012f5761044c61084d565b926104578433610c11565b91828252600286528382209384549481518881019067ffffffffffffffff91818110838211176105bc578452858152835194610492866109ba565b3386528a8601918252600160401b90818a1015610584576104ba8a6001968782018155610a23565b6105aa57859060018060a01b03809951166bffffffffffffffffffffffff60a01b82541617815501925191825194851161059757841161058457508a90825484845580851061055a575b5001908652898620865b838110610547575050505050519416907f313df56710bfec73d53fcb8e8d48ff821d5b2e9a113aad1e9bfc7997ef5a0d7f339180a48152f35b8251871682820155918b0191840161050e565b8389528585848b2092830192015b828110610576575050610504565b8a81558e9450879101610568565b634e487b7160e01b885260419052602487fd5b634e487b7160e01b895260418252602489fd5b634e487b7160e01b8952888252602489fd5b634e487b7160e01b875260418652602487fd5b50903461012f578060031936011261012f578135906105ec610837565b926105f96100cb33610969565b81516020908181019061064181610633303386906028926bffffffffffffffffffffffff19809260601b16835260601b1660148201520190565b03601f1981018352826109ec565b5190209260018060a01b039382857f8dddb57468cf5338ee155397ad1400a7a564308824f517d20a8a7c516523bb475416916044845180948193630f5d50b360e11b8352898301528c60248301525afa9081156107f65788916107c5575b501561076d578654851015610716578661033a876106f788886106c182610863565b9190548186169260031b1c16337ff48dd64d794d3623209edddaa975cfeae5b0ef403fbce64d7b377ceb50396c748880a4610863565b90919082549060031b9160018060a01b03809116831b921b1916179055565b5162461bcd60e51b815291820152602d60248201527f4d756c7469706c65205369676e6174757265203a204f776e657220696e64657860448201526c206973206f766572666c6f772160981b606482015260849150fd5b5162461bcd60e51b815291820152602e60248201527f6d756c74695369676e6174757265436c69656e74203a2054686973207478206960448201526d1cc81b9bdd08185c1c9c9bdd995960921b606482015260849150fd5b90508281813d83116107ef575b6107dc81836109ec565b810103126107eb57513861069f565b8780fd5b503d6107d2565b82513d8a823e3d90fd5b50503461021a576020906104276108163661081c565b90610ba1565b6040906003190112610832576004359060243590565b600080fd5b602435906001600160a01b038216820361083257565b600435906001600160a01b038216820361083257565b906000918254811015610899578280527f290decd9548b62a8d60345a988386fc84ba6bc95484008f6362f93160ef3e563019190565b634e487b7160e01b83526032600452602483fd5b80548210156108c55760005260206000200190600090565b634e487b7160e01b600052603260045260246000fd5b156108e257565b60405162461bcd60e51b815260206004820152603460248201527f4d756c7469706c65205369676e6174757265203a2063616c6c6572206973206e6044820152736f7420696e20746865206f776e65724c6973742160601b6064820152608490fd5b60001981146109535760010190565b634e487b7160e01b600052601160045260246000fd5b6000549060005b82811061097f57505050600090565b61098881610863565b905460039190911b1c6001600160a01b03908116908316146109b2576109ad90610944565b610970565b505050600190565b6040810190811067ffffffffffffffff8211176109d657604052565b634e487b7160e01b600052604160045260246000fd5b90601f8019910116810190811067ffffffffffffffff8211176109d657604052565b8054156108c557600052602060002090600090565b80548210156108c55760005260206000209060011b0190600090565b15610a4657565b60405162461bcd60e51b815260206004820152602f60248201527f4d756c7469706c65205369676e6174757265203a204d65737361676520696e6460448201526e6578206973206f766572666c6f772160881b6064820152608490fd5b9081546000915b818310610b65575b50808210610ac257505050600090565b6000199181830191821161095357818110610b1d575b505081548015610b07570190610aee82826108ad565b81549060018060a01b039060031b1b1916905555600190565b634e487b7160e01b600052603160045260246000fd5b610b37610b2d610b5e93866108ad565b91905492866108ad565b81546001600160a01b03600392831b81811b199092169490921b9490941c1690921b179055565b3880610ad8565b91610b7081856108ad565b905460039190911b1c6001600160a01b0390811690841614610b9b57610b9590610944565b91610aaa565b91610ab2565b60009081526002602052604081208054926001918254915b858110610bc95750505050905090565b8284610bd58385610a23565b5001541015610bec57610be790610944565b610bb9565b945050508201809211610bfd575090565b634e487b7160e01b81526011600452602490fd5b6040516bffffffffffffffffffffffff19606092831b8116602083019081529390921b9091166034820152610c498160488101610633565b5190209056fea264697066735822122042a3c1d2df05b423a72372137cacbb5e93f57739cbbe7ba7adc555d16157044a64736f6c63430008140033",
  "devdoc": {
    "details": "",
    "events": {
      "SignApplication(address,bytes32,uint256)": {
        "details": "",
        "params": {
          "from": "",
          "index": "",
          "msgHash": ""
        }
      }
    },
    "kind": "dev",
    "methods": {
      "constructor": {
        "details": "",
        "params": {
          "limitedSignNum": "",
          "owners": ""
        }
      },
      "createApplication(address)": {
        "details": "",
        "params": {
          "to": ""
        },
        "returns": {
          "_0": "uint256 "
        }
      },
      "getApplicationCount(bytes32)": {
        "details": "",
        "params": {
          "msghash": ""
        },
        "returns": {
          "_0": "uint256 "
        }
      },
      "getApplicationHash(address,address)": {
        "details": "",
        "params": {
          "from": "",
          "to": ""
        },
        "returns": {
          "_0": "bytes32 "
        }
      },
      "getApplicationInfo(bytes32,uint256)": {
        "details": "",
        "params": {
          "index": "",
          "msghash": ""
        },
        "returns": {
          "_0": "address ",
          "_1": "address[] "
        }
      },
      "getValidSignature(bytes32,uint256)": {
        "details": "",
        "params": {
          "lastIndex": "",
          "msghash": ""
        },
        "returns": {
          "_0": "uint256 +10"
        }
      },
      "revokeApplication(bytes32)": {
        "details": "",
        "params": {
          "msghash": ""
        }
      },
      "signApplication(bytes32)": {
        "details": "",
        "params": {
          "msghash": ""
        }
      },
      "transferOwner(uint256,address)": {
        "details": "",
        "params": {
          "index": "",
          "newOwner": ""
        }
      }
    },
    "title": "multiSignature - ",
    "version": 1
  },
  "userdoc": {
    "kind": "user",
    "methods": {
      "constructor": {
        "notice": ""
      },
      "createApplication(address)": {
        "notice": ""
      },
      "getApplicationHash(address,address)": {
        "notice": ""
      },
      "getValidSignature(bytes32,uint256)": {
        "notice": ""
      },
      "revokeApplication(bytes32)": {
        "notice": " signApplication0 signApplication"
      },
      "signApplication(bytes32)": {
        "notice": "  === defaultIndex === defaultIndex(0) 1.  2. msgHash 3. "
      },
      "transferOwner(uint256,address)": {
        "notice": ""
      }
    },
    "notice": "",
    "version": 1
  },
  "storageLayout": {
    "storage": [
      {
        "astId": 8685,
        "contract": "contracts/multiSignature/multiSignature.sol:multiSignature",
        "label": "signatureOwners",
        "offset": 0,
        "slot": "0",
        "type": "t_array(t_address)dyn_storage"
      },
      {
        "astId": 8687,
        "contract": "contracts/multiSignature/multiSignature.sol:multiSignature",
        "label": "threshold",
        "offset": 0,
        "slot": "1",
        "type": "t_uint256"
      },
      {
        "astId": 8699,
        "contract": "contracts/multiSignature/multiSignature.sol:multiSignature",
        "label": "signatureMap",
        "offset": 0,
        "slot": "2",
        "type": "t_mapping(t_bytes32,t_array(t_struct(signatureInfo)8693_storage)dyn_storage)"
      }
    ],
    "types": {
      "t_address": {
        "encoding": "inplace",
        "label": "address",
        "numberOfBytes": "20"
      },
      "t_array(t_address)dyn_storage": {
        "base": "t_address",
        "encoding": "dynamic_array",
        "label": "address[]",
        "numberOfBytes": "32"
      },
      "t_array(t_struct(signatureInfo)8693_storage)dyn_storage": {
        "base": "t_struct(signatureInfo)8693_storage",
        "encoding": "dynamic_array",
        "label": "struct multiSignature.signatureInfo[]",
        "numberOfBytes": "32"
      },
      "t_bytes32": {
        "encoding": "inplace",
        "label": "bytes32",
        "numberOfBytes": "32"
      },
      "t_mapping(t_bytes32,t_array(t_struct(signatureInfo)8693_storage)dyn_storage)": {
        "encoding": "mapping",
        "key": "t_bytes32",
        "label": "mapping(bytes32 => struct multiSignature.signatureInfo[])",
        "numberOfBytes": "32",
        "value": "t_array(t_struct(signatureInfo)8693_storage)dyn_storage"
      },
      "t_struct(signatureInfo)8693_storage": {
        "encoding": "inplace",
        "label": "struct multiSignature.signatureInfo",
        "members": [
          {
            "astId": 8689,
            "contract": "contracts/multiSignature/multiSignature.sol:multiSignature",
            "label": "applicant",
            "offset": 0,
            "slot": "0",
            "type": "t_address"
          },
          {
            "astId": 8692,
            "contract": "contracts/multiSignature/multiSignature.sol:multiSignature",
            "label": "signatures",
            "offset": 0,
            "slot": "1",
            "type": "t_array(t_address)dyn_storage"
          }
        ],
        "numberOfBytes": "64"
      },
      "t_uint256": {
        "encoding": "inplace",
        "label": "uint256",
        "numberOfBytes": "32"
      }
    }
  }
}