{
  "address": "0x31f64fa2588e70614ed7e7c16d5c492cedc09f72",
  "abi": [
    {
      "inputs": [
        {
          "internalType": "address",
          "name": "_oracle",
          "type": "address"
        },
        {
          "internalType": "address",
          "name": "_swapRouter",
          "type": "address"
        },
        {
          "internalType": "address payable",
          "name": "_feeAddress",
          "type": "address"
        },
        {
          "internalType": "address",
          "name": "_multiSignature",
          "type": "address"
        }
      ],
      "stateMutability": "nonpayable",
      "type": "constructor"
    },
    {
      "inputs": [],
      "name": "ReentrancyGuardReentrantCall",
      "type": "error"
    },
    {
      "inputs": [
        {
          "internalType": "address",
          "name": "token",
          "type": "address"
        }
      ],
      "name": "SafeERC20FailedOperation",
      "type": "error"
    },
    {
      "anonymous": false,
      "inputs": [
        {
          "indexed": true,
          "internalType": "address",
          "name": "from",
          "type": "address"
        },
        {
          "indexed": true,
          "internalType": "address",
          "name": "token",
          "type": "address"
        },
        {
          "indexed": false,
          "internalType": "uint256",
          "name": "amount",
          "type": "uint256"
        }
      ],
      "name": "ClaimBorrow",
      "type": "event"
    },
    {
      "anonymous": false,
      "inputs": [
        {
          "indexed": true,
          "internalType": "address",
          "name": "from",
          "type": "address"
        },
        {
          "indexed": true,
          "internalType": "address",
          "name": "token",
          "type": "address"
        },
        {
          "indexed": false,
          "internalType": "uint256",
          "name": "amount",
          "type": "uint256"
        }
      ],
      "name": "ClaimLend",
      "type": "event"
    },
    {
      "anonymous": false,
      "inputs": [
        {
          "indexed": true,
          "internalType": "address",
          "name": "from",
          "type": "address"
        },
        {
          "indexed": true,
          "internalType": "address",
          "name": "token",
          "type": "address"
        },
        {
          "indexed": false,
          "internalType": "uint256",
          "name": "amount",
          "type": "uint256"
        },
        {
          "indexed": false,
          "internalType": "uint256",
          "name": "mintAmount",
          "type": "uint256"
        }
      ],
      "name": "DepositBorrow",
      "type": "event"
    },
    {
      "anonymous": false,
      "inputs": [
        {
          "indexed": true,
          "internalType": "address",
          "name": "from",
          "type": "address"
        },
        {
          "indexed": true,
          "internalType": "address",
          "name": "token",
          "type": "address"
        },
        {
          "indexed": false,
          "internalType": "uint256",
          "name": "amount",
          "type": "uint256"
        },
        {
          "indexed": false,
          "internalType": "uint256",
          "name": "mintAmount",
          "type": "uint256"
        }
      ],
      "name": "DepositLend",
      "type": "event"
    },
    {
      "anonymous": false,
      "inputs": [
        {
          "indexed": true,
          "internalType": "address",
          "name": "from",
          "type": "address"
        },
        {
          "indexed": true,
          "internalType": "address",
          "name": "token",
          "type": "address"
        },
        {
          "indexed": false,
          "internalType": "uint256",
          "name": "amount",
          "type": "uint256"
        }
      ],
      "name": "EmergencyBorrowWithdrawal",
      "type": "event"
    },
    {
      "anonymous": false,
      "inputs": [
        {
          "indexed": true,
          "internalType": "address",
          "name": "from",
          "type": "address"
        },
        {
          "indexed": true,
          "internalType": "address",
          "name": "token",
          "type": "address"
        },
        {
          "indexed": false,
          "internalType": "uint256",
          "name": "amount",
          "type": "uint256"
        }
      ],
      "name": "EmergencyLendWithdrawal",
      "type": "event"
    },
    {
      "anonymous": false,
      "inputs": [
        {
          "indexed": true,
          "internalType": "address",
          "name": "recieptor",
          "type": "address"
        },
        {
          "indexed": true,
          "internalType": "address",
          "name": "token",
          "type": "address"
        },
        {
          "indexed": false,
          "internalType": "uint256",
          "name": "amount",
          "type": "uint256"
        }
      ],
      "name": "Redeem",
      "type": "event"
    },
    {
      "anonymous": false,
      "inputs": [
        {
          "indexed": true,
          "internalType": "address",
          "name": "from",
          "type": "address"
        },
        {
          "indexed": true,
          "internalType": "address",
          "name": "token",
          "type": "address"
        },
        {
          "indexed": false,
          "internalType": "uint256",
          "name": "refund",
          "type": "uint256"
        }
      ],
      "name": "RefundBorrow",
      "type": "event"
    },
    {
      "anonymous": false,
      "inputs": [
        {
          "indexed": true,
          "internalType": "address",
          "name": "from",
          "type": "address"
        },
        {
          "indexed": true,
          "internalType": "address",
          "name": "token",
          "type": "address"
        },
        {
          "indexed": false,
          "internalType": "uint256",
          "name": "refund",
          "type": "uint256"
        }
      ],
      "name": "RefundLend",
      "type": "event"
    },
    {
      "anonymous": false,
      "inputs": [
        {
          "indexed": true,
          "internalType": "uint256",
          "name": "newLendFee",
          "type": "uint256"
        },
        {
          "indexed": true,
          "internalType": "uint256",
          "name": "newBorrowFee",
          "type": "uint256"
        }
      ],
      "name": "SetFee",
      "type": "event"
    },
    {
      "anonymous": false,
      "inputs": [
        {
          "indexed": true,
          "internalType": "address",
          "name": "oldFeeAddress",
          "type": "address"
        },
        {
          "indexed": true,
          "internalType": "address",
          "name": "newFeeAddress",
          "type": "address"
        }
      ],
      "name": "SetFeeAddress",
      "type": "event"
    },
    {
      "anonymous": false,
      "inputs": [
        {
          "indexed": true,
          "internalType": "uint256",
          "name": "oldMinAmount",
          "type": "uint256"
        },
        {
          "indexed": true,
          "internalType": "uint256",
          "name": "newMinAmount",
          "type": "uint256"
        }
      ],
      "name": "SetMinAmount",
      "type": "event"
    },
    {
      "anonymous": false,
      "inputs": [
        {
          "indexed": true,
          "internalType": "address",
          "name": "oldSwapAddress",
          "type": "address"
        },
        {
          "indexed": true,
          "internalType": "address",
          "name": "newSwapAddress",
          "type": "address"
        }
      ],
      "name": "SetSwapRouterAddress",
      "type": "event"
    },
    {
      "anonymous": false,
      "inputs": [
        {
          "indexed": true,
          "internalType": "uint256",
          "name": "_pid",
          "type": "uint256"
        },
        {
          "indexed": true,
          "internalType": "uint256",
          "name": "oldState",
          "type": "uint256"
        },
        {
          "indexed": true,
          "internalType": "uint256",
          "name": "newState",
          "type": "uint256"
        }
      ],
      "name": "StateChange",
      "type": "event"
    },
    {
      "anonymous": false,
      "inputs": [
        {
          "indexed": true,
          "internalType": "address",
          "name": "fromCoin",
          "type": "address"
        },
        {
          "indexed": true,
          "internalType": "address",
          "name": "toCoin",
          "type": "address"
        },
        {
          "indexed": false,
          "internalType": "uint256",
          "name": "fromValue",
          "type": "uint256"
        },
        {
          "indexed": false,
          "internalType": "uint256",
          "name": "toValue",
          "type": "uint256"
        }
      ],
      "name": "Swap",
      "type": "event"
    },
    {
      "anonymous": false,
      "inputs": [
        {
          "indexed": true,
          "internalType": "address",
          "name": "from",
          "type": "address"
        },
        {
          "indexed": true,
          "internalType": "address",
          "name": "token",
          "type": "address"
        },
        {
          "indexed": false,
          "internalType": "uint256",
          "name": "amount",
          "type": "uint256"
        },
        {
          "indexed": false,
          "internalType": "uint256",
          "name": "burnAmount",
          "type": "uint256"
        }
      ],
      "name": "WithdrawBorrow",
      "type": "event"
    },
    {
      "anonymous": false,
      "inputs": [
        {
          "indexed": true,
          "internalType": "address",
          "name": "from",
          "type": "address"
        },
        {
          "indexed": true,
          "internalType": "address",
          "name": "token",
          "type": "address"
        },
        {
          "indexed": false,
          "internalType": "uint256",
          "name": "amount",
          "type": "uint256"
        },
        {
          "indexed": false,
          "internalType": "uint256",
          "name": "burnAmount",
          "type": "uint256"
        }
      ],
      "name": "WithdrawLend",
      "type": "event"
    },
    {
      "inputs": [],
      "name": "PoolLength",
      "outputs": [
        {
          "internalType": "uint256",
          "name": "",
          "type": "uint256"
        }
      ],
      "stateMutability": "view",
      "type": "function"
    },
    {
      "inputs": [],
      "name": "borrowFee",
      "outputs": [
        {
          "internalType": "uint256",
          "name": "",
          "type": "uint256"
        }
      ],
      "stateMutability": "view",
      "type": "function"
    },
    {
      "inputs": [
        {
          "internalType": "uint256",
          "name": "_pid",
          "type": "uint256"
        }
      ],
      "name": "checkoutFinish",
      "outputs": [
        {
          "internalType": "bool",
          "name": "",
          "type": "bool"
        }
      ],
      "stateMutability": "view",
      "type": "function"
    },
    {
      "inputs": [
        {
          "internalType": "uint256",
          "name": "_pid",
          "type": "uint256"
        }
      ],
      "name": "checkoutLiquidation",
      "outputs": [
        {
          "internalType": "bool",
          "name": "",
          "type": "bool"
        }
      ],
      "stateMutability": "view",
      "type": "function"
    },
    {
      "inputs": [
        {
          "internalType": "uint256",
          "name": "_pid",
          "type": "uint256"
        }
      ],
      "name": "checkoutSettle",
      "outputs": [
        {
          "internalType": "bool",
          "name": "",
          "type": "bool"
        }
      ],
      "stateMutability": "view",
      "type": "function"
    },
    {
      "inputs": [
        {
          "internalType": "uint256",
          "name": "_pid",
          "type": "uint256"
        }
      ],
      "name": "claimBorrow",
      "outputs": [],
      "stateMutability": "nonpayable",
      "type": "function"
    },
    {
      "inputs": [
        {
          "internalType": "uint256",
          "name": "_pid",
          "type": "uint256"
        }
      ],
      "name": "claimLend",
      "outputs": [],
      "stateMutability": "nonpayable",
      "type": "function"
    },
    {
      "inputs": [
        {
          "internalType": "uint256",
          "name": "_settleTime",
          "type": "uint256"
        },
        {
          "internalType": "uint256",
          "name": "_endTime",
          "type": "uint256"
        },
        {
          "internalType": "uint256",
          "name": "_interestRate",
          "type": "uint256"
        },
        {
          "internalType": "uint256",
          "name": "_maxSupply",
          "type": "uint256"
        },
        {
          "internalType": "uint256",
          "name": "_martgageRate",
          "type": "uint256"
        },
        {
          "internalType": "address",
          "name": "_lendToken",
          "type": "address"
        },
        {
          "internalType": "address",
          "name": "_borrowToken",
          "type": "address"
        },
        {
          "internalType": "address",
          "name": "_spToken",
          "type": "address"
        },
        {
          "internalType": "address",
          "name": "_jpToken",
          "type": "address"
        },
        {
          "internalType": "uint256",
          "name": "_autoLiquidateThreshold",
          "type": "uint256"
        }
      ],
      "name": "createPool",
      "outputs": [],
      "stateMutability": "nonpayable",
      "type": "function"
    },
    {
      "inputs": [
        {
          "internalType": "uint256",
          "name": "_pid",
          "type": "uint256"
        },
        {
          "internalType": "uint256",
          "name": "_stakeAmount",
          "type": "uint256"
        }
      ],
      "name": "depositBorrow",
      "outputs": [],
      "stateMutability": "payable",
      "type": "function"
    },
    {
      "inputs": [
        {
          "internalType": "uint256",
          "name": "_pid",
          "type": "uint256"
        },
        {
          "internalType": "uint256",
          "name": "_stakeAmount",
          "type": "uint256"
        }
      ],
      "name": "depositLend",
      "outputs": [],
      "stateMutability": "payable",
      "type": "function"
    },
    {
      "inputs": [
        {
          "internalType": "uint256",
          "name": "_pid",
          "type": "uint256"
        }
      ],
      "name": "emergencyBorrowWithdrawal",
      "outputs": [],
      "stateMutability": "nonpayable",
      "type": "function"
    },
    {
      "inputs": [
        {
          "internalType": "uint256",
          "name": "_pid",
          "type": "uint256"
        }
      ],
      "name": "emergencyLendWithdrawal",
      "outputs": [],
      "stateMutability": "nonpayable",
      "type": "function"
    },
    {
      "inputs": [],
      "name": "feeAddress",
      "outputs": [
        {
          "internalType": "address",
          "name": "",
          "type": "address"
        }
      ],
      "stateMutability": "view",
      "type": "function"
    },
    {
      "inputs": [
        {
          "internalType": "uint256",
          "name": "_pid",
          "type": "uint256"
        }
      ],
      "name": "finish",
      "outputs": [],
      "stateMutability": "nonpayable",
      "type": "function"
    },
    {
      "inputs": [],
      "name": "getMultiSignatureAddress",
      "outputs": [
        {
          "internalType": "address",
          "name": "",
          "type": "address"
        }
      ],
      "stateMutability": "view",
      "type": "function"
    },
    {
      "inputs": [
        {
          "internalType": "uint256",
          "name": "_pid",
          "type": "uint256"
        }
      ],
      "name": "getPoolState",
      "outputs": [
        {
          "internalType": "uint256",
          "name": "",
          "type": "uint256"
        }
      ],
      "stateMutability": "view",
      "type": "function"
    },
    {
      "inputs": [
        {
          "internalType": "uint256",
          "name": "_pid",
          "type": "uint256"
        }
      ],
      "name": "getUnderlyingPriceView",
      "outputs": [
        {
          "internalType": "uint256[2]",
          "name": "",
          "type": "uint256[2]"
        }
      ],
      "stateMutability": "view",
      "type": "function"
    },
    {
      "inputs": [],
      "name": "globalPaused",
      "outputs": [
        {
          "internalType": "bool",
          "name": "",
          "type": "bool"
        }
      ],
      "stateMutability": "view",
      "type": "function"
    },
    {
      "inputs": [],
      "name": "lendFee",
      "outputs": [
        {
          "internalType": "uint256",
          "name": "",
          "type": "uint256"
        }
      ],
      "stateMutability": "view",
      "type": "function"
    },
    {
      "inputs": [
        {
          "internalType": "uint256",
          "name": "_pid",
          "type": "uint256"
        }
      ],
      "name": "liquidate",
      "outputs": [],
      "stateMutability": "nonpayable",
      "type": "function"
    },
    {
      "inputs": [],
      "name": "minAmount",
      "outputs": [
        {
          "internalType": "uint256",
          "name": "",
          "type": "uint256"
        }
      ],
      "stateMutability": "view",
      "type": "function"
    },
    {
      "inputs": [],
      "name": "multiSignaturePosition",
      "outputs": [
        {
          "internalType": "uint256",
          "name": "",
          "type": "uint256"
        }
      ],
      "stateMutability": "view",
      "type": "function"
    },
    {
      "inputs": [],
      "name": "oracle",
      "outputs": [
        {
          "internalType": "contract IBscPledgeOracle",
          "name": "",
          "type": "address"
        }
      ],
      "stateMutability": "view",
      "type": "function"
    },
    {
      "inputs": [
        {
          "internalType": "uint256",
          "name": "",
          "type": "uint256"
        }
      ],
      "name": "poolBaseInfos",
      "outputs": [
        {
          "internalType": "uint256",
          "name": "settleTime",
          "type": "uint256"
        },
        {
          "internalType": "uint256",
          "name": "endTime",
          "type": "uint256"
        },
        {
          "internalType": "uint256",
          "name": "interestRate",
          "type": "uint256"
        },
        {
          "internalType": "uint256",
          "name": "maxSupply",
          "type": "uint256"
        },
        {
          "internalType": "uint256",
          "name": "lendSupply",
          "type": "uint256"
        },
        {
          "internalType": "uint256",
          "name": "borrowSupply",
          "type": "uint256"
        },
        {
          "internalType": "uint256",
          "name": "martgageRate",
          "type": "uint256"
        },
        {
          "internalType": "address",
          "name": "lendToken",
          "type": "address"
        },
        {
          "internalType": "address",
          "name": "borrowToken",
          "type": "address"
        },
        {
          "internalType": "enum PledgePool.PoolState",
          "name": "state",
          "type": "uint8"
        },
        {
          "internalType": "contract IDebtToken",
          "name": "spCoin",
          "type": "address"
        },
        {
          "internalType": "contract IDebtToken",
          "name": "jpCoin",
          "type": "address"
        },
        {
          "internalType": "uint256",
          "name": "autoLiquidateThreshold",
          "type": "uint256"
        }
      ],
      "stateMutability": "view",
      "type": "function"
    },
    {
      "inputs": [
        {
          "internalType": "uint256",
          "name": "",
          "type": "uint256"
        }
      ],
      "name": "poolDataInfos",
      "outputs": [
        {
          "internalType": "uint256",
          "name": "settleAmountLend",
          "type": "uint256"
        },
        {
          "internalType": "uint256",
          "name": "settleAmountBorrow",
          "type": "uint256"
        },
        {
          "internalType": "uint256",
          "name": "finishAmountLend",
          "type": "uint256"
        },
        {
          "internalType": "uint256",
          "name": "finishAmountBorrow",
          "type": "uint256"
        },
        {
          "internalType": "uint256",
          "name": "liquidationAmountLend",
          "type": "uint256"
        },
        {
          "internalType": "uint256",
          "name": "liquidationAmountBorrow",
          "type": "uint256"
        }
      ],
      "stateMutability": "view",
      "type": "function"
    },
    {
      "inputs": [
        {
          "internalType": "uint256",
          "name": "_pid",
          "type": "uint256"
        }
      ],
      "name": "refundBorrow",
      "outputs": [],
      "stateMutability": "nonpayable",
      "type": "function"
    },
    {
      "inputs": [
        {
          "internalType": "uint256",
          "name": "_pid",
          "type": "uint256"
        }
      ],
      "name": "refundLend",
      "outputs": [],
      "stateMutability": "nonpayable",
      "type": "function"
    },
    {
      "inputs": [
        {
          "internalType": "uint256",
          "name": "_lendFee",
          "type": "uint256"
        },
        {
          "internalType": "uint256",
          "name": "_borrowFee",
          "type": "uint256"
        }
      ],
      "name": "setFee",
      "outputs": [],
      "stateMutability": "nonpayable",
      "type": "function"
    },
    {
      "inputs": [
        {
          "internalType": "address",
          "name": "_feeAddress",
          "type": "address"
        }
      ],
      "name": "setFeeAddress",
      "outputs": [],
      "stateMutability": "nonpayable",
      "type": "function"
    },
    {
      "inputs": [
        {
          "internalType": "uint256",
          "name": "_minAmount",
          "type": "uint256"
        }
      ],
      "name": "setMinAmount",
      "outputs": [],
      "stateMutability": "nonpayable",
      "type": "function"
    },
    {
      "inputs": [],
      "name": "setPause",
      "outputs": [],
      "stateMutability": "nonpayable",
      "type": "function"
    },
    {
      "inputs": [
        {
          "internalType": "address",
          "name": "_swapRouter",
          "type": "address"
        }
      ],
      "name": "setSwapRouter",
      "outputs": [],
      "stateMutability": "nonpayable",
      "type": "function"
    },
    {
      "inputs": [
        {
          "internalType": "uint256",
          "name": "_pid",
          "type": "uint256"
        }
      ],
      "name": "settle",
      "outputs": [],
      "stateMutability": "nonpayable",
      "type": "function"
    },
    {
      "inputs": [],
      "name": "swapRouter",
      "outputs": [
        {
          "internalType": "address",
          "name": "",
          "type": "address"
        }
      ],
      "stateMutability": "view",
      "type": "function"
    },
    {
      "inputs": [
        {
          "internalType": "address",
          "name": "",
          "type": "address"
        },
        {
          "internalType": "uint256",
          "name": "",
          "type": "uint256"
        }
      ],
      "name": "userBorrowInfo",
      "outputs": [
        {
          "internalType": "uint256",
          "name": "stakeAmount",
          "type": "uint256"
        },
        {
          "internalType": "uint256",
          "name": "refundAmount",
          "type": "uint256"
        },
        {
          "internalType": "bool",
          "name": "hasNoRefund",
          "type": "bool"
        },
        {
          "internalType": "bool",
          "name": "hasNoClaim",
          "type": "bool"
        }
      ],
      "stateMutability": "view",
      "type": "function"
    },
    {
      "inputs": [
        {
          "internalType": "address",
          "name": "",
          "type": "address"
        },
        {
          "internalType": "uint256",
          "name": "",
          "type": "uint256"
        }
      ],
      "name": "userLendInfo",
      "outputs": [
        {
          "internalType": "uint256",
          "name": "stakeAmount",
          "type": "uint256"
        },
        {
          "internalType": "uint256",
          "name": "refundAmount",
          "type": "uint256"
        },
        {
          "internalType": "bool",
          "name": "hasNoRefund",
          "type": "bool"
        },
        {
          "internalType": "bool",
          "name": "hasNoClaim",
          "type": "bool"
        }
      ],
      "stateMutability": "view",
      "type": "function"
    },
    {
      "inputs": [
        {
          "internalType": "uint256",
          "name": "_pid",
          "type": "uint256"
        },
        {
          "internalType": "uint256",
          "name": "_jpAmount",
          "type": "uint256"
        }
      ],
      "name": "withdrawBorrow",
      "outputs": [],
      "stateMutability": "nonpayable",
      "type": "function"
    },
    {
      "inputs": [
        {
          "internalType": "uint256",
          "name": "_pid",
          "type": "uint256"
        },
        {
          "internalType": "uint256",
          "name": "_spAmount",
          "type": "uint256"
        }
      ],
      "name": "withdrawLend",
      "outputs": [],
      "stateMutability": "nonpayable",
      "type": "function"
    }
  ],
  "transactionHash": "0xaa1c5a9a41a70c4916606655e55db0a80c549687fbc15f9de654cf22dc4e1f97",
  "args": [
    "0xdb6D3b4CEB2aD839bdBD9A55833bac56212F1c94",
    "0xeE567Fe1712Faf6149d80dA1E6934E354124CfE3",
    "0x523df39cAe18ea125930DA730628213e4b147CDc",
    "0xc4F817a1541ae1c98c72e016c58c9121e8AB3A24"
  ],
  "numDeployments": 2,
  "solcInputHash": "3953f88cf47e017e2801ec25da3291c0",
  "bytecode": "0x608034620002ad57601f62003f1a38819003918201601f191683019291906001600160401b03841183851017620002b2578160809284926040968752833981010312620002ad576200005181620002c8565b906200006060208201620002c8565b818401516001600160a01b03808216949093909291859003620002ad576200008c6060859201620002c8565b600160005516801562000237577f8dddb57468cf5338ee155397ad1400a7a564308824f517d20a8a7c516523bb475568056bc75e2d63100000600155826002549216928315620001e757811615620001935783156200013f57600480546001600160a01b031990811690941790556001600160a81b031990911660089190911b610100600160a81b031617600255600380549091169190911790556000600581905560065551613c3c9081620002de8239f35b845162461bcd60e51b815260206004820152602760248201527f506c65646765506f6f6c203a2066656541646472657373206973207a65726f206044820152666164647265737360c81b6064820152608490fd5b845162461bcd60e51b815260206004820152602760248201527f506c65646765506f6f6c203a2073776170526f75746572206973207a65726f206044820152666164647265737360c81b6064820152608490fd5b855162461bcd60e51b815260206004820152602360248201527f506c65646765506f6f6c203a206f7261636c65206973207a65726f206164647260448201526265737360e81b6064820152608490fd5b855162461bcd60e51b815260206004820152604360248201527f6d756c74695369676e6174757265436c69656e74203a204d756c7469706c652060448201527f7369676e617475726520636f6e74726163742061646472657373206973207a65606482015262726f2160e81b608482015260a490fd5b600080fd5b634e487b7160e01b600052604160045260246000fd5b51906001600160a01b0382168203620002ad5756fe6080604052600436101561001257600080fd5b60003560e01c80630d6abfc114612ba757806314c090cc14612b7c57806316f941b514612a005780631e107979146126ca57806338f2aa76146123c35780633ab4a445146121205780633c9fadc31461209f5780634127365714611fc65780634127535814611f9d578063415f124014611da0578063459b911c146119605780634aea0aec1461194257806352f7c988146118fc57806361a552dc146118d957806362faecf41461180e578063638c7e17146117c65780636abd7f29146117985780636c42fed2146115155780636de6ff3a146114f75780637dc0d1d0146114ce5780638705fcd41461140a578063897b0637146113755780638df828001461114f57806390590da014610f43578063981b48a614610ed95780639b2cb5d814610ebb5780639d71488e14610e80578063a62ff16414610c11578063b159751714610bd6578063bb176a6414610b51578063bf38b8f614610973578063c31c9c0714610946578063c9333756146108ff578063d353a1cb1461069c578063d431b1ac1461066b578063e271fa0c14610490578063e626648a146104725763eec8d506146101be57600080fd5b3461046d5760208060031936011261046d57600435906101dc612fb3565b6101eb60ff6002541615612ea5565b6102016101f783612c7b565b505442101561310c565b60ff600861020e84612c7b565b50015460a01c166005811015610431576001148015610447575b801561040b575b61023890613158565b61024182612c7b565b5061024b83612cf8565b509233600052600a8352604060002090600052825260406000209081549081156103c657600481015494549061028182876130ba565b1561038157600284019182549360ff851661033c57670de0b6b3a76400006102eb896102e66007956102e07fc3e20279d41b3ed21d277920877e5e5c6665bf6aca607046a3fe0fd2bd6bda7d9b9c9d6102db60019861327b565b613313565b926130ba565b613300565b04960191868355600160ff1980961617845501916001808060a01b03946103168887875416336131a4565b8254161790556103278154866130ad565b90555416926040519283523392a36001600055005b60405162461bcd60e51b815260048101889052601d60248201527f726566756e644c656e64203a20616c726561647920726566756e6465640000006044820152606490fd5b60405162461bcd60e51b815260048101869052601760248201527f726566756e644c656e64203a206e6f7420726566756e640000000000000000006044820152606490fd5b60405162461bcd60e51b815260048101859052601860248201527f726566756e644c656e64203a206e6f7420706c656467656400000000000000006044820152606490fd5b5060ff600861041984612c7b565b50015460a01c1660058110156104315760031461022f565b634e487b7160e01b600052602160045260246000fd5b5060ff600861045584612c7b565b50015460a01c16600581101561043157600214610228565b600080fd5b3461046d57600036600319011261046d576020600654604051908152f35b3461046d5760208060031936011261046d57600435906104ae612fb3565b6104bd60ff6002541615612ea5565b60ff60086104ca84612c7b565b50015460a01c1660058110156104315760046104e691146133c6565b6104ef82612c7b565b5091600583015415610613573360005260098252604060002090600052815260406000209182549081156105ce57600284019060ff8254166105895760080180547f5a06c7de92f1dc59e8cba872927d016c80ce5f0fb2295c898dfb7a2f08e43fb1936001600160a01b03939161056991908516336131a4565b600160ff1982541617905554169254916040519283523392a36001600055005b60405162461bcd60e51b815260048101859052601a60248201527f726566756e64426f72726f773a20616761696e20726566756e640000000000006044820152606490fd5b60405162461bcd60e51b815260048101849052601960248201527f726566756e64426f72726f773a206e6f7420706c6564676564000000000000006044820152606490fd5b60405162461bcd60e51b815260048101839052602a60248201527f656d657267656e6379426f72726f775769746864726177616c203a206e6f74206044820152691dda5d1a191c985dd85b60b21b6064820152608490fd5b3461046d57600036600319011261046d57610684612d87565b60025460ff80821615169060ff191617600255600080f35b3461046d57602036600319011261046d576004356106b8612d87565b6106c181612c7b565b50906106cc81612cf8565b509060016106d982612c7b565b50015442106108ba576008830180549260ff8460a01c16600581101561043157600103610869576007850161078a60018060a01b039561075f8784541698662386f26fc1000061075860026301e1338061074161073c60018701548754906130ba565b6132e7565b049301549261075289548095613300565b90613300565b04906130ad565b97876305f5e10061077a61077460055461309c565b8c613300565b0492168860025460081c16613639565b919095878310610824576107e2600197846107f0948b60029c6003981160001461081957916107cf6107bf6107d494836130ba565b809388808c5416915416906131a4565b6130ba565b8a8701555b888601546130ba565b906006549086541690613412565b910155805460ff60a01b191660a184901b179055600080516020613be7833981519152600080a4005b50508a8701556107d9565b60405162461bcd60e51b815260206004820152601c60248201527f66696e6973683a20536c69707061676520697320746f6f2068696768000000006044820152606490fd5b60405162461bcd60e51b8152602060048201526024808201527f66696e6973683a20706f6f6c207374617465206d7573742062652065786563756044820152633a34b7b760e11b6064820152608490fd5b60405162461bcd60e51b815260206004820152601a60248201527f66696e6973683a206c657373207468616e20656e642074696d650000000000006044820152606490fd5b3461046d5760208060031936011261046d5761091c6004356134ff565b604051916000835b6002821061093157604085f35b82806001928651815201940191019092610924565b3461046d57600036600319011261046d5760025460405160089190911c6001600160a01b03168152602090f35b3461046d5760208060031936011261046d5760043590610991612fb3565b6109a060ff6002541615612ea5565b60ff60086109ad84612c7b565b50015460a01c1660058110156104315760046109c991146133c6565b6109d282612c7b565b5091600483015415610af75733600052600a825260406000209060005281526040600020918254908115610aa457600284019060ff825416610a4c5760070180547f71d14c5f08cb34cbfb59c06ea5151aafbf742d0b6ed00fdb83addd9afb5c0fd0936001600160a01b03939161056991908516336131a4565b60405162461bcd60e51b815260048101859052602a60248201527f656d657267656e63794c656e645769746864726177616c203a20616c726561646044820152691e481c99599d5b99195960b21b6064820152608490fd5b60405162461bcd60e51b815260048101849052602560248201527f656d657267656e63794c656e645769746864726177616c203a206e6f7420706c604482015264195919d95960da1b6064820152608490fd5b60405162461bcd60e51b815260048101839052602c60248201527f656d657267656e63794c656e645769746864726177616c203a206c656e64537560448201526b70706c79206973207a65726f60a01b6064820152608490fd5b3461046d57604036600319011261046d576001600160a01b03610b72612ce2565b16600052600a60205260406000206024356000526020526040600020805490610bd26002600183015492015460405193849360ff808460081c16931691859260609295949195608085019685526020850152151560408401521515910152565b0390f35b3461046d57602036600319011261046d5760ff6008610bf6600435612c7b565b50015460a01c16600581101561043157602090604051908152f35b3461046d5760208060031936011261046d57600435610c2e612fb3565b610c3d60ff6002541615612ea5565b610c496101f782612c7b565b60ff6008610c5683612c7b565b50015460a01c166005811015610431576001148015610e5a575b8015610e34575b610c8090613158565b610c8981612c7b565b5090610c9481612cf8565b5090336000526009845260406000209060005283526040600020906001600584015491015491610cc483836130ba565b15610def578054918215610daa57600282019384549360ff8516610d65579360019693670de0b6b3a7640000610d2a856102e68b966102e07f732816f48de550f238bd0d4f5b79819c7b24a49d6132928978e3cd36568dd5db9c996102db60089d61327b565b04970187905560ff19161790550180546001600160a01b039190610d529085908416336131a4565b5416926040519283523392a36001600055005b60405162461bcd60e51b815260048101899052601f60248201527f726566756e64426f72726f77203a20616c726561647920726566756e646564006044820152606490fd5b60405162461bcd60e51b815260048101879052601a60248201527f726566756e64426f72726f77203a206e6f7420706c65646765640000000000006044820152606490fd5b60405162461bcd60e51b815260048101869052601960248201527f726566756e64426f72726f77203a206e6f7420726566756e64000000000000006044820152606490fd5b5060ff6008610e4283612c7b565b50015460a01c16600581101561043157600314610c77565b5060ff6008610e6883612c7b565b50015460a01c16600581101561043157600214610c70565b3461046d57600036600319011261046d5760206040517f8dddb57468cf5338ee155397ad1400a7a564308824f517d20a8a7c516523bb478152f35b3461046d57600036600319011261046d576020600154604051908152f35b3461046d57602036600319011261046d5760043560085481101561046d57610f0260c091612cf8565b5080549060018101549060028101546003820154906005600484015493015493604051958652602086015260408501526060840152608083015260a0820152f35b610f4c36612ccc565b610f54612fb3565b610f6360ff6002541615612ea5565b610f78610f6f83612c7b565b50544210612eff565b60ff6008610f8584612c7b565b50015460a01c16600581101561043157610f9f9015612f56565b610fa882612c7b565b509133600052600a602052604060002090600052602052604060002091600381015490610fdb60048201928354906130ba565b83116110ee5760070180546001600160a01b039290610ffd9085908516612fd6565b946001548611156110935760028101805461ffff191690558254841661107457611029815434906130ad565b90556110363482546130ad565b90555b54169160405191825260208201527f129e8c18c2f7baf99c7eb257934c21f038c72412803512dcf0a942a4562a82ea60403392a36001600055005b61107f8682546130ad565b905561108c8582546130ad565b9055611039565b60405162461bcd60e51b815260206004820152602d60248201527f6465706f7369744c656e643a20616d6f756e74206c657373207468616e206d6960448201526c1b9a5b5d5b4819195c1bdcda5d609a1b6064820152608490fd5b60405162461bcd60e51b815260206004820152603360248201527f6465706f7369744c656e64203a207374616b65416d6f756e742069732067726560448201527261746572207468616e206d6178537570706c7960681b6064820152608490fd5b3461046d57602036600319011261046d5760043561116b612d87565b61117481612c7b565b509061117f81612cf8565b5061118982612c7b565b50544210611322576008830190815460ff8160a01c166005811015610431576112de576004850190815490811515806112d1575b1561129357505090600180958594936111d76000976134ff565b91602083016111f16111e9825161327b565b855190613313565b936112236006611218670de0b6b3a764000061121260058801998a54613300565b046132e7565b940193845490613313565b9354918483118b1461125f57505050508355549101555b805460ff60a01b191660a085901b179055600080516020613be78339815191528280a4005b61128b95506102db9394509061127b61128392848a55516132e7565b905190613313565b925490613300565b91015561123a565b60ff60a01b1916600160a21b179093555090815560059092015460019290920191909155600490600090600080516020613be78339815191528280a4005b50600587015415156111bd565b606460405162461bcd60e51b815260206004820152602060248201527f736574746c653a20706f6f6c207374617465206d757374206265204d415443486044820152fd5b60405162461bcd60e51b815260206004820152602560248201527f736574746c653a2074696d65206973206c657373207468616e20736574746c656044820152642074696d6560d81b6064820152608490fd5b3461046d57602036600319011261046d57600435611391612d87565b80156113c557806001547ffa6189b739625142c695478e9d0095a1cb9e6fad92ad8a727e0055a5cc85b06b600080a3600155005b60405162461bcd60e51b815260206004820152601e60248201527f506c65646765506f6f6c203a206d696e416d6f756e74206973207a65726f00006044820152606490fd5b3461046d57602036600319011261046d57611423612ce2565b61142b612d87565b6001600160a01b0390811690811561147957816003549182167fd44190acf9d04bdb5d3a1aafff7e6dee8b40b93dfb8c5d3f0eea4b9f4539c3f7600080a36001600160a01b03191617600355005b60405162461bcd60e51b815260206004820152602760248201527f506c65646765506f6f6c203a2066656541646472657373206973207a65726f206044820152666164647265737360c81b6064820152608490fd5b3461046d57600036600319011261046d576004546040516001600160a01b039091168152602090f35b3461046d57600036600319011261046d576020600754604051908152f35b3461046d5760208060031936011261046d57600435611532612fb3565b61154160ff6002541615612ea5565b61154d6101f782612c7b565b60ff600861155a83612c7b565b50015460a01c166005811015610431576001148015611772575b801561174c575b61158490613158565b61158d81612c7b565b5061159782612cf8565b509133600052600a845260406000209060005283526040600020918254928315611707576002019260ff845460081c166116c257670de0b6b3a7640000916115ef6115e46115f69361327b565b600486015490613313565b9054613300565b60098301546040516340c10f1960e01b815233600482015292909104602483018190529391926001600160a01b03929186908590604490829060009088165af19182156116b6577f6f4dd2687b3c3bfa99d39742b01d6e0ad9604c48559791d5df4ff5df44b41dfd94600793611689575b50805461ff001916610100179055015460405193845216923392a36001600055005b6116a890883d8a116116af575b6116a08183612d65565b810190613362565b5087611667565b503d611696565b6040513d6000823e3d90fd5b60405162461bcd60e51b815260048101869052601a60248201527f636c61696d4c656e64203a616c726561647920636c61696d65640000000000006044820152606490fd5b60405162461bcd60e51b815260048101869052601e60248201527f636c61696d4c656e64203a63616e6e6f74206765742073705f746f6b656e00006044820152606490fd5b5060ff600861175a83612c7b565b50015460a01c1660058110156104315760031461157b565b5060ff600861178083612c7b565b50015460a01c16600581101561043157600214611574565b3461046d57602036600319011261046d57602060016117b8600435612c7b565b500154421015604051908152f35b3461046d57600036600319011261046d577f8dddb57468cf5338ee155397ad1400a7a564308824f517d20a8a7c516523bb47546040516001600160a01b039091168152602090f35b3461046d57602036600319011261046d5760043561182b81612c7b565b5090600b670de0b6b3a764000061186861185e61185161184a86612cf8565b50956134ff565b61127b602082015161327b565b6001850154613300565b0491549201546305f5e100908101928184106118945760209361188a91613300565b0411604051908152f35b60405162461bcd60e51b815260206004820152601b60248201527f536166654d6174683a206164646974696f6e206f766572666c6f7700000000006044820152606490fd5b3461046d57600036600319011261046d57602060ff600254166040519015158152f35b3461046d5761190a36612ccc565b90611913612d87565b80600555816006557f032dc6a2d839eb179729a55633fdf1c41a1fc4739394154117005db2b354b9b5600080a3005b3461046d57600036600319011261046d576020600554604051908152f35b3461046d576101408060031936011261046d5760249060043590823560a4356001600160a01b0381169081900361046d5760c4356001600160a01b0381169081900361046d5760e4356001600160a01b038116929083900361046d57610104356001600160a01b038116949085900361046d576119db612d87565b86811115611d3f578415611cee578315611c9d57604051966101a0880188811067ffffffffffffffff821117611c8857604052875260208701526044356040870152606435606087015260006080870152600060a087015260843560c087015260e086015261010085015260006101208501528284015261016083015261012435610180830152600754600160401b811015611c7357806001611a819201600755612c7b565b929092611c5e57805183556020810151600184015560408101516002840155606081015160038401556080810151600484015560a0810151600584015560c08101516006840155600783019060018060a01b0360e082015116916bffffffffffffffffffffffff60a01b9283825416179055600884019160018060a01b036101008301511693835493610120840151946005861015611c49576001600160a81b03191690951760a09490941b60ff60a01b16939093179093559081015160098401805484166001600160a01b03928316179055610160820151600a850180549094169116179091556101800151600b919091015560405160c0810167ffffffffffffffff811182821017611c34576040526000815260208101600081526040820160008152606083016000815260808401916000835260a085019360008552600854600160401b811015611c1f57806001611bdf9201600855612cf8565b969096611c0a5751865551600186015551600285015551600384015551600483015551600590910155005b87634e487b7160e01b60005260006004526000fd5b87634e487b7160e01b60005260416004526000fd5b82634e487b7160e01b60005260416004526000fd5b88634e487b7160e01b60005260216004526000fd5b83634e487b7160e01b60005260006004526000fd5b83634e487b7160e01b60005260416004526000fd5b89634e487b7160e01b60005260416004526000fd5b60405162461bcd60e51b8152602060048201528089018990527f637265617465506f6f6c203a207370546f6b656e206973207a65726f206164646044820152637265737360e01b6064820152608490fd5b60405162461bcd60e51b8152602060048201528089018990527f637265617465506f6f6c203a206a70546f6b656e206973207a65726f206164646044820152637265737360e01b6064820152608490fd5b60405162461bcd60e51b8152602060048201526034818a01527f637265617465506f6f6c203a20656e6454696d65206d7573742062652067726560448201527361746572207468616e20736574746c6554696d6560601b6064820152608490fd5b3461046d57602036600319011261046d57600435611dbc612d87565b611dc581612cf8565b5090611dd081612c7b565b509081549283421115611f47576008830190815460ff8160a01c16600581101561043157600103611ef257611ebd61073c6107e260039888611e80600596611e5689662386f26fc1000061075860019f60070196600160026301e13380611e49836107529460a01b039e8f8d54169d60018701546130ba565b0492015494548095613300565b93866305f5e100611e70611e6a8c5461309c565b88613300565b0492168760025460081c16613639565b919092808311600014611ee657916107cf611e9e611eaf94836130ba565b80938f8980915416915416906131a4565b6004870155888601546130ba565b910155805460ff60a01b191660a085901b179055600080516020613be7833981519152600080a4005b505060048701556107d9565b60405162461bcd60e51b815260206004820152602760248201527f6c69717569646174653a20706f6f6c207374617465206d75737420626520657860448201526632b1baba34b7b760c91b6064820152608490fd5b60405162461bcd60e51b815260206004820152602860248201527f6c69717569646174653a2074696d65206973206c657373207468616e20736574604482015267746c652074696d6560c01b6064820152608490fd5b3461046d57600036600319011261046d576003546040516001600160a01b039091168152602090f35b3461046d57602036600319011261046d57611fdf612ce2565b611fe7612d87565b6001600160a01b0390808216801561204a57600254928360081c167f4558149b3c5427365f76d4ff19bef30aba41f17e5e601d4661330d8d2b687627600080a3610100600160a81b031990911660089190911b610100600160a81b031617600255005b60405162461bcd60e51b815260206004820152602760248201527f506c65646765506f6f6c203a2073776170526f75746572206973207a65726f206044820152666164647265737360c81b6064820152608490fd5b3461046d57604036600319011261046d576001600160a01b036120c0612ce2565b16600052600960205260406000206024356000526020526040600020805490610bd26002600183015492015460405193849360ff808460081c16931691859260609295949195608085019685526020850152151560408401521515910152565b3461046d5760208060031936011261046d5760043561213d612fb3565b61214c60ff6002541615612ea5565b6121586101f782612c7b565b60ff600861216583612c7b565b50015460a01c16600581101561043157600114801561239d575b8015612377575b61218f90613158565b61219881612c7b565b50906121a381612cf8565b50903360005260098452604060002090600052835260406000208054908115612328576002019260ff845460081c166122e3576000906122066121fb6305f5e1006121f48754600686015490613300565b049461327b565b600583015490613313565b809361221c670de0b6b3a7640000928392613300565b600a8401546040516340c10f1960e01b81523360048201529290910460248301526001600160a01b03959194899186916044918391908a165af19081156116b6577f3ddafe3ebb4d0c818317027aabfa82dc9983942ceeb80523167e2de047b17fbd96600895612292936122c6575b5054613300565b04946122a58685600785015416336131a4565b805461ff001916610100179055015460405193845216923392a36001600055005b6122dc908b3d8d116116af576116a08183612d65565b508a61228b565b60405162461bcd60e51b815260048101869052601d60248201527f636c61696d426f72726f77203a20616c726561647920636c61696d65640000006044820152606490fd5b60405162461bcd60e51b815260048101869052602160248201527f636c61696d426f72726f77203a2063616e6e6f7420676574206a705f746f6b656044820152603760f91b6064820152608490fd5b5060ff600861238583612c7b565b50015460a01c16600581101561043157600314612186565b5060ff60086123ab83612c7b565b50015460a01c1660058110156104315760021461217f565b3461046d576123d136612ccc565b906123da612fb3565b6123e960ff6002541615612ea5565b60ff60086123f683612c7b565b50015460a01c1660058110156104315760021480156126a4575b6124199061337a565b61242c61242582612c7b565b5091612cf8565b5091801561265f576009820154604051632770a7eb60e21b8152336004820152602481018390526020946001600160a01b039290919086908290604490829060009088165af180156116b657612642575b5061248c81546102db8561327b565b906008850160ff815460a01c16600581101561043157600214612589575b5460a01c60ff166005811015610431576003146124c9575b6001600055005b84544210612538576124ea6007926004670de0b6b3a7640000930154613300565b0493016124fb8483835416336131a4565b5416926040519283528201527f690f32ccf3e832d5ff975d781039bc2affebee9c973939c9b710091b87954c9d60403392a38080808080806124c2565b60405162461bcd60e51b8152600481018790526024808201527f77697468647261774c656e64203a206c657373207468616e20736574746c652060448201526374696d6560e01b6064820152608490fd5b600186015442106125fd5760ff90670de0b6b3a76400006125ae856002860154613300565b0485600789016125c28383835416336131a4565b541690604051908152878a8201527f690f32ccf3e832d5ff975d781039bc2affebee9c973939c9b710091b87954c9d60403392a390506124aa565b60405162461bcd60e51b815260048101889052601b60248201527f77697468647261774c656e64203a206e6f7420656e642074696d6500000000006044820152606490fd5b61265890863d88116116af576116a08183612d65565b508561247d565b60405162461bcd60e51b815260206004820152601f60248201527f77697468647261774c656e64203a207370416d6f756e74206973207a65726f006044820152606490fd5b5060ff60086126b283612c7b565b50015460a01c16600581101561043157600314612410565b3461046d576126d836612ccc565b6126e0612fb3565b6126ef60ff6002541615612ea5565b60ff60086126fc84612c7b565b50015460a01c1660058110156104315760021480156129da575b61271f9061337a565b61273261272b83612c7b565b5092612cf8565b5090801561298557600a830154604051632770a7eb60e21b8152336004820152602481018390526020946001600160a01b0394929091908690829060449082906000908a165af180156116b657612968575b506127a76305f5e10061279d8454600685015490613300565b046102db8561327b565b6008820192835460ff8160a01c166005811015610431576002146128a9575b5083549260ff8460a01c166005811015610431576003146127e8576001600055005b5442106128565791670de0b6b3a764000061280c6128179360058997960154613300565b0495869116336131a4565b5416926040519283528201527f0f5e74952c2f9259a748f3aa9a6c4534a6f46a5966e5baabdb6bd337f05234a860403392a380808080808080806124c2565b60405162461bcd60e51b815260048101889052602560248201527f7769746864726177426f72726f77203a206c657373207468616e206d617463686044820152642074696d6560d81b6064820152608490fd5b60018401544210612917576128db8791670de0b6b3a76400006128d0866003870154613300565b0492839116336131a4565b868554169060405190815286898201527f0f5e74952c2f9259a748f3aa9a6c4534a6f46a5966e5baabdb6bd337f05234a860403392a3876127c6565b60405162461bcd60e51b815260048101899052602360248201527f7769746864726177426f72726f77203a206c657373207468616e20656e642074604482015262696d6560e81b6064820152608490fd5b61297e90863d88116116af576116a08183612d65565b5085612784565b60405162461bcd60e51b815260206004820152602760248201527f7769746864726177426f72726f773a20776974686472617720616d6f756e74206044820152666973207a65726f60c81b6064820152608490fd5b5060ff60086129e884612c7b565b50015460a01c16600581101561043157600314612716565b612a0936612ccc565b612a11612fb3565b612a2060ff6002541615612ea5565b612a2c610f6f83612c7b565b60ff6008612a3984612c7b565b50015460a01c16600581101561043157612a539015612f56565b612a5c82612c7b565b509133600052600960205260406000209060005260205260406000206008830160018060a01b0391612a918484845416612fd6565b948515612b295760028201805461ffff191690558254600592908516612b0957612abd815434906130ad565b905501612acb3482546130ad565b90555b54169160405191825260208201527f1d7b72e666a0b6217efe7cfa1b604ea5c7b39219563ce48b30c9da77045247a560403392a36001600055005b612b148682546130ad565b905501612b228482546130ad565b9055612ace565b60405162461bcd60e51b815260206004820152602560248201527f6465706f736974426f72726f773a206465706f73697420616d6f756e74206973604482015264207a65726f60d81b6064820152608490fd5b3461046d57602036600319011261046d576020612b9a600435612c7b565b5054421015604051908152f35b3461046d57602036600319011261046d5760043560075481101561046d57612bce90612c7b565b508054600182015460028301549260ff60038201546004830154600584015490600685015460018060a01b039283600788015416926008880154958560098a0154169b600b87600a8c0154169a01549a6040519c8d5260208d015260408c015260608b015260808a015260a089015260c088015260e0870152811661010086015260a01c16936005851015610431576101a094610120850152610140840152610160830152610180820152f35b600754811015612cb657600c906007600052027fa66cc928b5edb82af9bd49922954155ab7b0942694bea4ce44661d9a8736c6880190600090565b634e487b7160e01b600052603260045260246000fd5b604090600319011261046d576004359060243590565b600435906001600160a01b038216820361046d57565b600854811015612cb6576006906008600052027ff3f7a9fe364faab93b216da50a3214154f22a0a2b415b23a84c8169e8b636ee30190600090565b6060810190811067ffffffffffffffff821117612d4f57604052565b634e487b7160e01b600052604160045260246000fd5b90601f8019910116810190811067ffffffffffffffff821117612d4f57604052565b604051602090818101903360601b82523060601b603482015260288152612dad81612d33565b5190207f8dddb57468cf5338ee155397ad1400a7a564308824f517d20a8a7c516523bb4754604051630f5d50b360e11b81526004810192909252600060248301528290829060449082906001600160a01b03165afa9081156116b657600091612e75575b5015612e1a5750565b6084906040519062461bcd60e51b82526004820152602e60248201527f6d756c74695369676e6174757265436c69656e74203a2054686973207478206960448201526d1cc81b9bdd08185c1c9c9bdd995960921b6064820152fd5b908282813d8311612e9e575b612e8b8183612d65565b81010312612e9b57505138612e11565b80fd5b503d612e81565b15612eac57565b60405162461bcd60e51b815260206004820152602560248201527f506c65646765506f6f6c203a205374616b6520686173206265656e2073757370604482015264195b99195960da1b6064820152608490fd5b15612f0657565b60405162461bcd60e51b815260206004820152602260248201527f506c65646765506f6f6c203a204c657373207468616e20736574746c652074696044820152616d6560f01b6064820152608490fd5b15612f5d57565b60405162461bcd60e51b815260206004820152602860248201527f73746174653a20506f6f6c20737461747573206973206e6f7420657175616c206044820152670e8de40dac2e8c6d60c31b6064820152608490fd5b600260005414612fc4576002600055565b604051633ee5aeb560e01b8152600490fd5b6001600160a01b031680612fea5750503490565b81612ff3575090565b6040516323b872dd60e01b60208201523360248201523060448201526064808201849052815260a081019167ffffffffffffffff831182841017612d4f5761303d92604052613040565b90565b906000602091828151910182855af1156116b6576000513d61309357506001600160a01b0381163b155b6130715750565b604051635274afe760e01b81526001600160a01b039091166004820152602490fd5b6001141561306a565b6305f5e10081019081106118945790565b9081019081106118945790565b9081039081116130c75790565b60405162461bcd60e51b815260206004820152601e60248201527f536166654d6174683a207375627472616374696f6e206f766572666c6f7700006044820152606490fd5b1561311357565b60405162461bcd60e51b815260206004820152601e60248201527f506c65646765506f6f6c203a20416674657220736574746c652074696d6500006044820152606490fd5b1561315f57565b60405162461bcd60e51b815260206004820152601b60248201527f73746174653a206e6f74206d6174636820616e6420756e646f6e6500000000006044820152606490fd5b6001600160a01b039182169291908361320c578260008115613203575b6000808093819387871690f1156116b6577fd12200efa34901b99367694174c3b0d32c99585fdf37c7c26892136ddd0836d9916020915b6040519485521692a3565b506108fc6131c1565b60405163a9059cbb60e01b6020808301919091528383166001600160a01b03166024830152604480830186905282527fd12200efa34901b99367694174c3b0d32c99585fdf37c7c26892136ddd0836d9939092909161327690613270606482612d65565b87613040565b6131f8565b670de0b6b3a7640000908181029181159183041417156132985790565b60405162461bcd60e51b815260206004820152602160248201527f536166654d6174683a206d756c7469706c69636174696f6e206f766572666c6f6044820152607760f81b6064820152608490fd5b6305f5e100908181029181159183041417156132985790565b8181029181159183041417156132985790565b811561331d570490565b60405162461bcd60e51b815260206004820152601b60248201527f536166654d6174683a206469766973696f6e206f766572666c6f7700000000006044820152606490fd5b9081602091031261046d5751801515810361046d5790565b1561338157565b60405162461bcd60e51b815260206004820152601960248201527f73746174653a2066696e697368206c69717569646174696f6e000000000000006044820152606490fd5b156133cd57565b60405162461bcd60e51b815260206004820152601b60248201527f73746174653a207374617465206d75737420626520756e646f6e6500000000006044820152606490fd5b916305f5e10061342561303d9483613300565b04918280613435575b50506130ba565b60035461344b92906001600160a01b03166131a4565b388261342e565b805115612cb65760200190565b805160011015612cb65760400190565b8051821015612cb65760209160051b010190565b90602090818382031261046d57825167ffffffffffffffff9384821161046d570181601f8201121561046d578051938411612d4f578360051b90604051946134cd85840187612d65565b8552838086019282010192831161046d578301905b8282106134f0575050505090565b815181529083019083016134e2565b6040805167ffffffffffffffff9281830184811183821017612d4f5761352b9284918252369037612c7b565b509080519161353983612d33565b600283526020926008848201928436853760078101546001600160a01b039283929091831661356786613452565b520154166135748361345f565b52600454169083519283916304e59d2760e11b835260248301908760048501525180915260448301919060005b88828210613622575050505091818060009403915afa908115613617576000916135f6575b5081519384830190811185821017612d4f576135ee92526135e681613452565b51845261345f565b519082015290565b613611913d8091833e6136098183612d65565b810190613483565b386135c6565b82513d6000823e3d90fd5b8351855287955093840193909201916001016135a1565b9392909190600081156139115750600061368191613658848689613975565b9060405193849283926307c0329d60e21b84526004840152604060248401526044830190613919565b03816001600160a01b0389165afa80156116b6576136a7916000916138f8575b50613452565b51935b6001600160a01b03838116928315906136da9082156138e9575b8381169687159485156138da575b861695613975565b91600091156137e457505090601e4201918242116137b5576000916137249188604051809681958294637ff36ab560e01b8452886004850152608060248501526084840190613919565b90306044840152606483015203925af19081156116b6576000916137cb575b50915b61374f83613452565b5183516000199391908481019081116137b5577ffa2dda1cc1b86e41239702756b13effbc1a092b5c57e3ad320fbe4f3b13fe235916137906040928861346f565b5182519182526020820152a381519081019081116137b5576137b19161346f565b5190565b634e487b7160e01b600052601160045260246000fd5b6137de913d8091833e6136098183612d65565b38613743565b156138505750601e42018042116137b55761381d92876000809460405196879586948593632512eca560e11b8552309160048601613a93565b03925af19081156116b657600091613837575b5091613746565b61384a913d8091833e6136098183612d65565b38613830565b91601e4201918242116138c657918391888361388595604051968795869485936338ed173960e01b8552309160048601613a93565b03925af19182156138ba57809261389f575b505091613746565b6138b392503d8091833e6136098183612d65565b3880613897565b604051903d90823e3d90fd5b634e487b7160e01b84526011600452602484fd5b6138e48784613acd565b6136d2565b6138f38588613acd565b6136c4565b61390b913d8091833e6136098183612d65565b386136a1565b9050936136aa565b90815180825260208080930193019160005b828110613939575050505090565b83516001600160a01b03168552938101939281019260010161392b565b9081602091031261046d57516001600160a01b038116810361046d5790565b604080519294936001600160a01b0392831661399085612d33565b60028552602091833684880137859785811615600014613a8e575083516315ab88c960e31b81528381600481865afa908115613a8357600091613a66575b505b856139da88613452565b91169052808516613a58575090806004928451938480926315ab88c960e31b82525afa928315613a4e575090613a1b9291600092613a21575b50509261345f565b91169052565b613a409250803d10613a47575b613a388183612d65565b810190613956565b3880613a13565b503d613a2e565b513d6000823e3d90fd5b915050613a1b91509261345f565b613a7d9150843d8611613a4757613a388183612d65565b386139ce565b85513d6000823e3d90fd5b6139d0565b90608092613ab9919695949683526000602084015260a0604084015260a0830190613919565b6001600160a01b0390951660608201520152565b60405163095ea7b360e01b60208083019182526001600160a01b039094166024830152600019604480840191909152825267ffffffffffffffff92916080810184811182821017612d4f57604052600092839283809351925af1913d15613bdd573d908111613bc95760405190613b4d601f8201601f1916860183612d65565b81528091843d92013e5b81613b99575b5015613b665750565b6064906040519062461bcd60e51b82526004820152600c60248201526b2173616665417070726f766560a01b6044820152fd5b80518015925083908315613bb1575b50505038613b5d565b613bc19350820181019101613362565b388281613ba8565b634e487b7160e01b82526041600452602482fd5b50506060613b5756fe516112f3bf06e373fcea44db364769c04cc7ef4392e6de95d2b250720bcacefba26469706673582212205bc7ac1966f51929369415b8d7abd0aeed8de2823d02bbbd330b641d83c0931a64736f6c63430008140033",
  "devdoc": {
    "errors": {
      "ReentrancyGuardReentrantCall()": [
        {
          "details": "Unauthorized reentrant call."
        }
      ],
      "SafeERC20FailedOperation(address)": [
        {
          "details": "An operation with an ERC-20 token failed."
        }
      ]
    },
    "kind": "dev",
    "methods": {
      "checkoutLiquidation(uint256)": {
        "details": ",",
        "params": {
          "_pid": ""
        }
      },
      "claimBorrow(uint256)": {
        "details": " sp_token ",
        "params": {
          "_pid": " |            |      |  |    |  |     | `claimBorrow` | EXECUTION/FINISH/LIQUIDATION |    |   |  JP +|   "
        }
      },
      "claimLend(uint256)": {
        "details": " sp_token, sp_token",
        "params": {
          "_pid": "  |  |  |  |  | | claimLend |  | SP |  |"
        }
      },
      "createPool(uint256,uint256,uint256,uint256,uint256,address,address,address,address,uint256)": {
        "details": " SPJP  Can only be called by the owner."
      },
      "depositBorrow(uint256,uint256)": {
        "details": "",
        "params": {
          "_pid": "",
          "_stakeAmount": ""
        }
      },
      "depositLend(uint256,uint256)": {
        "details": "",
        "params": {
          "_pid": " |  |  |  |  |  |  | | `depositLend` | MATCH |  |  |  |  |",
          "_stakeAmount": ""
        }
      },
      "emergencyBorrowWithdrawal(uint256)": {
        "details": "",
        "params": {
          "_pid": ""
        }
      },
      "emergencyLendWithdrawal(uint256)": {
        "details": "",
        "params": {
          "_pid": ""
        }
      },
      "finish(uint256)": {
        "details": "",
        "params": {
          "_pid": ""
        }
      },
      "liquidate(uint256)": {
        "details": "",
        "params": {
          "_pid": ""
        }
      },
      "refundBorrow(uint256)": {
        "details": "",
        "params": {
          "_pid": ""
        }
      },
      "refundLend(uint256)": {
        "details": "",
        "params": {
          "_pid": ""
        }
      },
      "setFeeAddress(address)": {
        "details": "Set up the address to receive the handling fee"
      },
      "withdrawBorrow(uint256,uint256)": {
        "details": "",
        "params": {
          "_jpAmount": "JPtoken",
          "_pid": ""
        }
      },
      "withdrawLend(uint256,uint256)": {
        "details": "",
        "params": {
          "_pid": "",
          "_spAmount": "sp |  |  |  |  |  | | `withdrawLend` | FINISH/LIQUIDATION | SP |   |  |"
        }
      }
    },
    "version": 1
  },
  "userdoc": {
    "kind": "user",
    "methods": {
      "claimBorrow(uint256)": {
        "notice": ""
      },
      "claimLend(uint256)": {
        "notice": ""
      },
      "depositLend(uint256,uint256)": {
        "notice": "MATCH"
      },
      "emergencyBorrowWithdrawal(uint256)": {
        "notice": "00 00 0   "
      },
      "emergencyLendWithdrawal(uint256)": {
        "notice": "  UNDONE 1. **** 2. **** 3. **** |  |  |  |  |  |  | | `emergencyLendWithdrawal` | UNDONE |  |  |  |  |"
      },
      "refundBorrow(uint256)": {
        "notice": " |            |      |  |    |  |     | `refundBorrow` | EXECUTION/FINISH/LIQUIDATION |    |   | |    "
      },
      "refundLend(uint256)": {
        "notice": " |  |  |  |  |  | | `refundLend` | EXECUTION/FINISH/LIQUIDATION |  |   |  |"
      },
      "setFeeAddress(address)": {
        "notice": "Only allow administrators to operate"
      },
      "withdrawBorrow(uint256,uint256)": {
        "notice": " |            |      |  |    |  |     | `withdrawBorrow` | FINISH/LIQUIDATION |    |   |  JP +|   "
      },
      "withdrawLend(uint256,uint256)": {
        "notice": ""
      }
    },
    "version": 1
  },
  "storageLayout": {
    "storage": [
      {
        "astId": 2740,
        "contract": "contracts/pledage/PledgePool.sol:PledgePool",
        "label": "_status",
        "offset": 0,
        "slot": "0",
        "type": "t_uint256"
      },
      {
        "astId": 9987,
        "contract": "contracts/pledage/PledgePool.sol:PledgePool",
        "label": "minAmount",
        "offset": 0,
        "slot": "1",
        "type": "t_uint256"
      },
      {
        "astId": 10004,
        "contract": "contracts/pledage/PledgePool.sol:PledgePool",
        "label": "globalPaused",
        "offset": 0,
        "slot": "2",
        "type": "t_bool"
      },
      {
        "astId": 10006,
        "contract": "contracts/pledage/PledgePool.sol:PledgePool",
        "label": "swapRouter",
        "offset": 1,
        "slot": "2",
        "type": "t_address"
      },
      {
        "astId": 10008,
        "contract": "contracts/pledage/PledgePool.sol:PledgePool",
        "label": "feeAddress",
        "offset": 0,
        "slot": "3",
        "type": "t_address"
      },
      {
        "astId": 10011,
        "contract": "contracts/pledage/PledgePool.sol:PledgePool",
        "label": "oracle",
        "offset": 0,
        "slot": "4",
        "type": "t_contract(IBscPledgeOracle)8002"
      },
      {
        "astId": 10013,
        "contract": "contracts/pledage/PledgePool.sol:PledgePool",
        "label": "lendFee",
        "offset": 0,
        "slot": "5",
        "type": "t_uint256"
      },
      {
        "astId": 10015,
        "contract": "contracts/pledage/PledgePool.sol:PledgePool",
        "label": "borrowFee",
        "offset": 0,
        "slot": "6",
        "type": "t_uint256"
      },
      {
        "astId": 10049,
        "contract": "contracts/pledage/PledgePool.sol:PledgePool",
        "label": "poolBaseInfos",
        "offset": 0,
        "slot": "7",
        "type": "t_array(t_struct(PoolBaseInfo)10045_storage)dyn_storage"
      },
      {
        "astId": 10066,
        "contract": "contracts/pledage/PledgePool.sol:PledgePool",
        "label": "poolDataInfos",
        "offset": 0,
        "slot": "8",
        "type": "t_array(t_struct(PoolDataInfo)10062_storage)dyn_storage"
      },
      {
        "astId": 10082,
        "contract": "contracts/pledage/PledgePool.sol:PledgePool",
        "label": "userBorrowInfo",
        "offset": 0,
        "slot": "9",
        "type": "t_mapping(t_address,t_mapping(t_uint256,t_struct(BorrowInfo)10075_storage))"
      },
      {
        "astId": 10098,
        "contract": "contracts/pledage/PledgePool.sol:PledgePool",
        "label": "userLendInfo",
        "offset": 0,
        "slot": "10",
        "type": "t_mapping(t_address,t_mapping(t_uint256,t_struct(LendInfo)10091_storage))"
      }
    ],
    "types": {
      "t_address": {
        "encoding": "inplace",
        "label": "address",
        "numberOfBytes": "20"
      },
      "t_array(t_struct(PoolBaseInfo)10045_storage)dyn_storage": {
        "base": "t_struct(PoolBaseInfo)10045_storage",
        "encoding": "dynamic_array",
        "label": "struct PledgePool.PoolBaseInfo[]",
        "numberOfBytes": "32"
      },
      "t_array(t_struct(PoolDataInfo)10062_storage)dyn_storage": {
        "base": "t_struct(PoolDataInfo)10062_storage",
        "encoding": "dynamic_array",
        "label": "struct PledgePool.PoolDataInfo[]",
        "numberOfBytes": "32"
      },
      "t_bool": {
        "encoding": "inplace",
        "label": "bool",
        "numberOfBytes": "1"
      },
      "t_contract(IBscPledgeOracle)8002": {
        "encoding": "inplace",
        "label": "contract IBscPledgeOracle",
        "numberOfBytes": "20"
      },
      "t_contract(IDebtToken)8035": {
        "encoding": "inplace",
        "label": "contract IDebtToken",
        "numberOfBytes": "20"
      },
      "t_enum(PoolState)9996": {
        "encoding": "inplace",
        "label": "enum PledgePool.PoolState",
        "numberOfBytes": "1"
      },
      "t_mapping(t_address,t_mapping(t_uint256,t_struct(BorrowInfo)10075_storage))": {
        "encoding": "mapping",
        "key": "t_address",
        "label": "mapping(address => mapping(uint256 => struct PledgePool.BorrowInfo))",
        "numberOfBytes": "32",
        "value": "t_mapping(t_uint256,t_struct(BorrowInfo)10075_storage)"
      },
      "t_mapping(t_address,t_mapping(t_uint256,t_struct(LendInfo)10091_storage))": {
        "encoding": "mapping",
        "key": "t_address",
        "label": "mapping(address => mapping(uint256 => struct PledgePool.LendInfo))",
        "numberOfBytes": "32",
        "value": "t_mapping(t_uint256,t_struct(LendInfo)10091_storage)"
      },
      "t_mapping(t_uint256,t_struct(BorrowInfo)10075_storage)": {
        "encoding": "mapping",
        "key": "t_uint256",
        "label": "mapping(uint256 => struct PledgePool.BorrowInfo)",
        "numberOfBytes": "32",
        "value": "t_struct(BorrowInfo)10075_storage"
      },
      "t_mapping(t_uint256,t_struct(LendInfo)10091_storage)": {
        "encoding": "mapping",
        "key": "t_uint256",
        "label": "mapping(uint256 => struct PledgePool.LendInfo)",
        "numberOfBytes": "32",
        "value": "t_struct(LendInfo)10091_storage"
      },
      "t_struct(BorrowInfo)10075_storage": {
        "encoding": "inplace",
        "label": "struct PledgePool.BorrowInfo",
        "members": [
          {
            "astId": 10068,
            "contract": "contracts/pledage/PledgePool.sol:PledgePool",
            "label": "stakeAmount",
            "offset": 0,
            "slot": "0",
            "type": "t_uint256"
          },
          {
            "astId": 10070,
            "contract": "contracts/pledage/PledgePool.sol:PledgePool",
            "label": "refundAmount",
            "offset": 0,
            "slot": "1",
            "type": "t_uint256"
          },
          {
            "astId": 10072,
            "contract": "contracts/pledage/PledgePool.sol:PledgePool",
            "label": "hasNoRefund",
            "offset": 0,
            "slot": "2",
            "type": "t_bool"
          },
          {
            "astId": 10074,
            "contract": "contracts/pledage/PledgePool.sol:PledgePool",
            "label": "hasNoClaim",
            "offset": 1,
            "slot": "2",
            "type": "t_bool"
          }
        ],
        "numberOfBytes": "96"
      },
      "t_struct(LendInfo)10091_storage": {
        "encoding": "inplace",
        "label": "struct PledgePool.LendInfo",
        "members": [
          {
            "astId": 10084,
            "contract": "contracts/pledage/PledgePool.sol:PledgePool",
            "label": "stakeAmount",
            "offset": 0,
            "slot": "0",
            "type": "t_uint256"
          },
          {
            "astId": 10086,
            "contract": "contracts/pledage/PledgePool.sol:PledgePool",
            "label": "refundAmount",
            "offset": 0,
            "slot": "1",
            "type": "t_uint256"
          },
          {
            "astId": 10088,
            "contract": "contracts/pledage/PledgePool.sol:PledgePool",
            "label": "hasNoRefund",
            "offset": 0,
            "slot": "2",
            "type": "t_bool"
          },
          {
            "astId": 10090,
            "contract": "contracts/pledage/PledgePool.sol:PledgePool",
            "label": "hasNoClaim",
            "offset": 1,
            "slot": "2",
            "type": "t_bool"
          }
        ],
        "numberOfBytes": "96"
      },
      "t_struct(PoolBaseInfo)10045_storage": {
        "encoding": "inplace",
        "label": "struct PledgePool.PoolBaseInfo",
        "members": [
          {
            "astId": 10017,
            "contract": "contracts/pledage/PledgePool.sol:PledgePool",
            "label": "settleTime",
            "offset": 0,
            "slot": "0",
            "type": "t_uint256"
          },
          {
            "astId": 10019,
            "contract": "contracts/pledage/PledgePool.sol:PledgePool",
            "label": "endTime",
            "offset": 0,
            "slot": "1",
            "type": "t_uint256"
          },
          {
            "astId": 10021,
            "contract": "contracts/pledage/PledgePool.sol:PledgePool",
            "label": "interestRate",
            "offset": 0,
            "slot": "2",
            "type": "t_uint256"
          },
          {
            "astId": 10023,
            "contract": "contracts/pledage/PledgePool.sol:PledgePool",
            "label": "maxSupply",
            "offset": 0,
            "slot": "3",
            "type": "t_uint256"
          },
          {
            "astId": 10025,
            "contract": "contracts/pledage/PledgePool.sol:PledgePool",
            "label": "lendSupply",
            "offset": 0,
            "slot": "4",
            "type": "t_uint256"
          },
          {
            "astId": 10027,
            "contract": "contracts/pledage/PledgePool.sol:PledgePool",
            "label": "borrowSupply",
            "offset": 0,
            "slot": "5",
            "type": "t_uint256"
          },
          {
            "astId": 10029,
            "contract": "contracts/pledage/PledgePool.sol:PledgePool",
            "label": "martgageRate",
            "offset": 0,
            "slot": "6",
            "type": "t_uint256"
          },
          {
            "astId": 10031,
            "contract": "contracts/pledage/PledgePool.sol:PledgePool",
            "label": "lendToken",
            "offset": 0,
            "slot": "7",
            "type": "t_address"
          },
          {
            "astId": 10033,
            "contract": "contracts/pledage/PledgePool.sol:PledgePool",
            "label": "borrowToken",
            "offset": 0,
            "slot": "8",
            "type": "t_address"
          },
          {
            "astId": 10036,
            "contract": "contracts/pledage/PledgePool.sol:PledgePool",
            "label": "state",
            "offset": 20,
            "slot": "8",
            "type": "t_enum(PoolState)9996"
          },
          {
            "astId": 10039,
            "contract": "contracts/pledage/PledgePool.sol:PledgePool",
            "label": "spCoin",
            "offset": 0,
            "slot": "9",
            "type": "t_contract(IDebtToken)8035"
          },
          {
            "astId": 10042,
            "contract": "contracts/pledage/PledgePool.sol:PledgePool",
            "label": "jpCoin",
            "offset": 0,
            "slot": "10",
            "type": "t_contract(IDebtToken)8035"
          },
          {
            "astId": 10044,
            "contract": "contracts/pledage/PledgePool.sol:PledgePool",
            "label": "autoLiquidateThreshold",
            "offset": 0,
            "slot": "11",
            "type": "t_uint256"
          }
        ],
        "numberOfBytes": "384"
      },
      "t_struct(PoolDataInfo)10062_storage": {
        "encoding": "inplace",
        "label": "struct PledgePool.PoolDataInfo",
        "members": [
          {
            "astId": 10051,
            "contract": "contracts/pledage/PledgePool.sol:PledgePool",
            "label": "settleAmountLend",
            "offset": 0,
            "slot": "0",
            "type": "t_uint256"
          },
          {
            "astId": 10053,
            "contract": "contracts/pledage/PledgePool.sol:PledgePool",
            "label": "settleAmountBorrow",
            "offset": 0,
            "slot": "1",
            "type": "t_uint256"
          },
          {
            "astId": 10055,
            "contract": "contracts/pledage/PledgePool.sol:PledgePool",
            "label": "finishAmountLend",
            "offset": 0,
            "slot": "2",
            "type": "t_uint256"
          },
          {
            "astId": 10057,
            "contract": "contracts/pledage/PledgePool.sol:PledgePool",
            "label": "finishAmountBorrow",
            "offset": 0,
            "slot": "3",
            "type": "t_uint256"
          },
          {
            "astId": 10059,
            "contract": "contracts/pledage/PledgePool.sol:PledgePool",
            "label": "liquidationAmountLend",
            "offset": 0,
            "slot": "4",
            "type": "t_uint256"
          },
          {
            "astId": 10061,
            "contract": "contracts/pledage/PledgePool.sol:PledgePool",
            "label": "liquidationAmountBorrow",
            "offset": 0,
            "slot": "5",
            "type": "t_uint256"
          }
        ],
        "numberOfBytes": "192"
      },
      "t_uint256": {
        "encoding": "inplace",
        "label": "uint256",
        "numberOfBytes": "32"
      }
    }
  }
}